:1000000000308A001828000025308400831300087F
:10001000031917280630F800F701F70B0D28F80B25
:100020000C287B30F700F70B1328800B0A280800F8
:1000300003081F398300FF30A40083161F149F1488
:100040001F159F11831383121F179F1383169F176A
:1000500083121F1483161F109F101F119F118312EC
:100060002411240883168700831207110C3097008F
:100070000130A5000420A4102408831687008312F1
:1000800087100C309D000030F80006389200FA30DE
:100090008316920064308312A50004200030F8001B
:1000A0001F08C73978049F000130A50004201F15E0
:1000B0001F19582883161E088312A0001E08A100CD
:1000C0000130A50004200830F8001F08C739780463
:1000D0009F000130A50004201F151F196D288316ED
:1000E0001E088312A2001E08A3000310210CA60004
:1000F000200CA500A60CA50CA60CA50CA60C25088A
:100100009500A60C260C3039F7001708CF39770474
:1001100097000130A50004200310230CA600220C38
:10012000A500A60CA50CA60CA50CA60C25089B00EA
:10013000A60C260C3039F7001D08CF3977049D0036
:0A0140000130A50004204E286300E2
:02400E00723FFF
:00000001FF
;PIC16F877
;CRC=3E26  CREATED="23-Dec-18 20:20"
