:1000000008308A0000280000502B20236532200091
:10001000C3376E3B6539F3346F37A02B693A6800FC
:10002000453CE939F434EE33A02AD0290001CD3023
:10003000E4322031791D0001C630693D6137AC29B9
:10004000E830EB347200CD30E4322031791D00010C
:1000500041376410C8306D3D6100D6274C2AC1235A
:10006000451D2533202B0000C32A52294527541D46
:10007000A012661041004927D02A5410D027D72259
:10008000521D0001D6274C2AC123451DA01266101F
:100090005600C32A52294527541DA012661041005C
:1000A000CF2A5428552A2028CF2B45293A004730FB
:1000B00084008313000803196A280630F800F7014A
:1000C000F70B6028F80B5F287B30F700F70B6628EA
:1000D000800B5D2808008316081083120810831611
:1000E00086018312460886008316881083128814BE
:1000F000A630F700F70B7A280000831688108312C9
:10010000881008000230C4009630C7005720C40B86
:1001100084283830C6006B200E30C6006B200130BA
:10012000C6006B203230C70057208A150A121028EB
:1001300080304407C500C6006B20080083160810F5
:1001400083120814831686018312510886008316D1
:10015000881083128814A630F700F70BAD28000032
:10016000831688108312881008000B08C4008B13B4
:10017000831603178C170C1400000000831203135E
:10018000C41B8B1703170C087F39031909290313A4
:10019000C40003170D080313C50003170F0803134A
:1001A000C6004408D1009E20450803178D000313A4
:1001B000460803178F0003130B08C7008B13831621
:1001C00003178C170C140000000083120313C71BC5
:1001D0008B1703170C0D0E0D7F3903190929031313
:1001E000C40003170D080313C50003170F080313FA
:1001F000C6004408D1009E20450803178D00031354
:10020000460803178F008D0A03198F0A0313B528B8
:10021000031703130800C0304407C500C6006B2055
:100220000800C50144084502031822291C30C600F5
:100230006B200230C6009630C7005720C60B1B2922
:10024000C50A122908008E30F7004508F800440856
:10025000F900FA01F808031D37297908F800F901B7
:100260000830F702F808031D3729F7013F2903106A
:10027000F81B3E29F90DF80DF7033729F81308008C
:1002800051080319B029D90055080319B029D90715
:10029000031851297F30D902031CB0290319B02952
:1002A00055298130D9070318B0295908F700F801FA
:1002B000F901FA015208DD00DD175308DC0054088B
:1002C000DB001830D900DA015B1C7E295808FA07D8
:1002D000031C7029F90A031D7029F80A0319DA179B
:1002E0005708F907031C7729F80A0319DA17560883
:1002F000D300D3175308F8070318DA17DA0DF80CF0
:10030000F90CFA0CDD0CDC0CDB0C0310D90B6329A7
:100310000130F7070318B029F81B9529DD0DFA0DF8
:10032000F90DF80DF7030319B029DD1FA629FA0A04
:10033000031DA629F90A031DA629F80A031DA629EB
:10034000F80CF90CFA0CF70A0319B0295208DA0074
:100350005608DA06DA1FAE29F817B429F813B429BB
:10036000F701F801F901FA010800480803197A2A8F
:10037000D4004C0803197A2AD402031CC4297F3004
:10038000D40703187A2ACA298130D402031C7A2A96
:1003900003197A2A5408F700F801F901FA01D30188
:1003A0004908D200D2174A08D1004B08D0001930B2
:1003B000D4004F08D0020318ED290130D1020318F0
:1003C000ED29D2020318ED29D3020318ED29D30A2F
:1003D000D20AD10A4F08D0071F2A4E08D1020318AB
:1003E000082A0130D2020318082AD3020318082A67
:1003F000D30AD20A4E08D1074F08D007031C1F2A80
:10040000D10A031D1F2AD20A031D1F2AD30A1F2A3D
:100410004D088038D20203181E2A0130D302031877
:100420001E2AD30A4D088038D2074E08D107031C74
:10043000FC29D20A031DFC29D30AFC297A14D40B07
:10044000222A2D2A0310D00DD10DD20DD30D031069
:10045000FA0DF90DF80DD50DD929551C352A0310C3
:10046000F80CF90CFA0CD50C382AF70303197A2A80
:10047000D51B612A0310D00DD10DD20DD30D4F081D
:10048000D00203184D2A0130D10203184D2AD2029E
:1004900003184D2AD302031C702A4E08D1020318F8
:1004A000582A0130D2020318582AD302031C702A9A
:1004B0004D088038D2020318612A0130D302031C90
:1004C000702AFA0A031D702AF90A031D702AF80A15
:1004D000031D702AF70A03197A2AF80CF90CFA0C92
:1004E0004908D4004D08D406D41F782AF8177E2A6C
:1004F000F8137E2AF701F801F901FA0108008030AB
:100500008318CD06D201D3014908D1004D08D10688
:10051000480803196F2BD000F7004C080319782BFB
:10052000D0020319142B031CD22A4D08D600D6176B
:100530004E08D5004F08D400D3010310D60CD50CBB
:10054000D40CD30CD00B9C2AD11FA92A52148C2B6B
:100550005210501052164B3084008313A12B5212AC
:10056000D11BBC2A501CC72AD60CD50CD40CD30CDA
:10057000F70A0319872BC72AD61BCA2A0310D30DE3
:10058000D40DD50DD60DF7030319872BBC2A5217AE
:10059000342B52134908D100D11FD02AD617802BF3
:1005A000D613802B4C08D000F7004808D002490829
:1005B000D600D6174A08D5004B08D400D301031043
:1005C000D60CD50CD40CD30CD00BDE2AD11FEB2AC1
:1005D000D2148C2BD2105010D2164F3084008313BB
:1005E000A12BD212D11BFE2A501C092BD60CD50CE4
:1005F000D40CD30CF70A0319872B092BD61B0C2B11
:100600000310D30DD40DD50DD60DF7030319872B89
:10061000FE2AD217342BD2134D08D100D11F122B32
:10062000D617802BD613802B4D08D600D6174E0830
:10063000D5004F08D400D11F212BD61352158C2B77
:100640005211D30150104B3084008313A12BD11BC6
:100650004A2B4908D100501C342BD60CD50CD40C95
:10066000D30CF70A0319872BD31F452BD40A031D7C
:10067000452BD50A031D452BD60A031D452BD60C49
:10068000D50CD40CF70A0319872B521BC92AD21B8D
:100690000B2B692B8030D606D61F522B8C2B4D0886
:1006A000D1005F2B4908D100D608031D5F2BD50868
:1006B000031D5F2BD408031D5F2BF701802BD61B76
:1006C000692B0310D30DD40DD50DD60DF70B5F2B71
:1006D000872BD11F6D2BD617802BD613802B4C0860
:1006E000F7004D08D6004E08D5004F08D400802BE7
:1006F0004808F7004908D6004A08D5004B08D4003E
:100700005608F8005508F9005408FA00BF2BF70105
:10071000F801F901FA01BF2BD301D409D509D60993
:10072000D309D30A031D9A2BD40A031D9A2BD50A89
:100730000319D60A5218A82AD218EA2A5219202BCD
:100740004F2B0008D407031CAB2BD50A031DAB2B82
:10075000D60A0319501484030008D507031CB32BD1
:10076000D60A0319501484030008801F803AD60764
:1007700003185014521AAF2AD21AF12A272B080054
:100780004508CC004908CC06CC1FCB2B0311031025
:10079000C51B0314FE2B4508CC004808CD004408B7
:1007A000CD020319D92BCC1FFE2B0308013A83007D
:1007B000FE2B4908CD004508CD020319E52BCC1FBF
:1007C000FE2B0308013A8300FE2B4A08CD004608A1
:1007D000CD020319F12BCC1FFE2B0308013A830035
:1007E000FE2B4B08CD004708CD020319FD2BCC1F73
:1007F000FE2B0308013A8300FE2B03108A150A1210
:10080000D72A0B08C5008B13831603178C170C14FB
:100810000000000083120313C51B8B170318382C2C
:1008200003170C087F390313C50003170D080313C2
:10083000C60003170F080313C7004508D1009E2008
:10084000460803178D000313470803178F0003138F
:100850000B08C8008B13831603178C170C140000A9
:10086000000083120313C81B8B17C40B382C572CA2
:1008700003170C0D0E0D7F390313C50003170D0868
:100880000313C60003170F080313C7004508D10060
:100890009E20460803178D000313470803178F0097
:1008A0008D0A03198F0A03100313C40B012C0800CF
:1008B00083185D2C593084008313F701F801F90186
:1008C000FA01D901DA01DB01DC01580857045604AA
:1008D000550403199B2C2030DD000310D10DD20DDF
:1008E000D30DD40DD90DDA0DDB0DDC0D58085C02EB
:1008F000031D842C57085B02031D842C56085A02E2
:10090000031D842C55085902031C952C5508D90247
:100910005608031C560FDA025708031C570FDB0258
:100920005808031C580FDC020314F70DF80DF90DDD
:10093000FA0DDD0B6D2C59088000840A5A088000DE
:10094000840A5B088000840A5C08800008000408B0
:10095000C9004808CB000319C62C4708D400460834
:10096000D3004508D2004408D100D801D701203077
:10097000D6008230D50040217A08C7007908C60029
:100980007808C5007708C400CB0BAD2C4708D4000D
:100990004608D3004508D2004408D1005108B63CAF
:1009A000D100FA015208D500D2170310D20CD30C93
:1009B000D40CFA0CF90CF80CF70CD10BD52CD51F74
:1009C000EC2CF709F809F909FA09F70A0319F80AEA
:1009D0000319F90A0319FA0A7A08C7007908C60048
:1009E0007808C5007708C400C71F032DC903C916BE
:1009F000C409C509C609C709C40A0319C50A0319E8
:100A0000C60A0319C70A3B30D0009A30CF00CA305B
:100A1000CE00CD010A30CB0048080319C90A83145F
:100A20004430840083134708D4004608D3004508A7
:100A3000D2004408D1005008D8004F08D7004E0813
:100A4000D6004D08D50058247808F708031D3B2D23
:100A5000480A4B0203193B2D490803193D2D0F3954
:100A60004B020319352D03186D2DC91B6D2D491B24
:100A70003D2D2030692D2030C905C91E4B2DC912CE
:100A80004808031DC9037708C9002D30D1009E20F6
:100A90004908F700C90148084B02031D592D770882
:100AA000C9002E30D1009E204908F7002030C9052A
:100AB00000303030C91E692DC9124808031DC90312
:100AC0007708C9002D30D1009E204908F700C901E0
:100AD0003030F7077708D1009E2083105008D400EB
:100AE0004F08D3004E08D2004D08D100D801D701DD
:100AF000D6010A30D50058247A08D0007908CF00F2
:0E0B00007808CE007708CD00CB0B0F2D080033
:1010000003081F398300FF30C20083161F149F148A
:101010001F159F1183138312A001A1018A11822839
:101020008A1583161F109F101F119F1183121F17FF
:101030009F1383169F1783121F14C2104208831632
:10104000870083128710421142088316870083129B
:1010500007110C3097000030F8000438920031304E
:10106000831692008312C3010330C4008A119820B2
:101070008A15043003178D0000308F008A11031386
:10108000B5208A15C4018A110B218A15083003176F
:101090008D0000308F008A110313B5208A150430AB
:1010A000C400FA30C7008A1157208A15C40B512892
:1010B0001430C4008A1111218A150130C6008A112A
:1010C0006B208A153230C7008A1157208A15C40157
:1010D0008A1198208A15103003178D0000308F0078
:1010E0008A110313B5208A150430C400FA30C700F2
:1010F0008A1157208A15C40B76281430C4008A112F
:1011000011218A150130C6008A116B208A153230F0
:10111000C7008A1157208A150330C4008A1198200D
:101120008A15173003178D0000308F008A110313C2
:10113000B5208A15C4018A110B218A151C300317AA
:101140008D0000308F008A110313B5208A150430FA
:10115000C400FA30C7008A1157208A15C40BA92889
:101160001430C4008A1111218A150130C6008A1179
:101170006B208A153230C7008A1157208A15033038
:10118000C4008A1198208A15233003178D0000307F
:101190008F008A110313B5208A150230C4008A110A
:1011A0000B218A15283003178D0000308F008A111B
:1011B0000313B5208A150430C400FA30C7008A1121
:1011C00057208A15C40BDD281430C4008A11112160
:1011D0008A15C30AC308031934280130C6008A11CE
:1011E0006B208A153230C7008A1157208A15831662
:1011F0008812831288168316881383128817831621
:101200000813831208170030F8001F08C739780444
:101210009F00A630F700F70B0B2900001F151F19C0
:101220000F291E08FA0083161E088312C4001E0828
:10123000C5008A1123218A157A08A9007908A80017
:101240007808A7007708A600D401D3012030D20087
:101250008130D1002908D8002808D7002708D600F7
:101260002608D5008A1140218A157A08C700790816
:10127000C6007808C5007708C4004708CB004608B8
:10128000CA004508C9004408C800CF01C030CE00DC
:101290007F30CD008830CC008A11B5218A157A08BC
:1012A000C7007908C6007808C5007708C400470859
:1012B000CB004608CA004508C9004408C800903061
:1012C000CF00A030CE003830CD007C30CC008A1169
:1012D000B5218A157A08AD007908AC007808AB0012
:1012E0007708AA000830F8001F08C73978049F0063
:1012F0006430C7008A1157208A151F151F197E29CF
:101300001E08FA0083161E088312C4001E08C500BA
:101310008A1123218A157A08A9007908A80078087B
:10132000A7007708A6000A30D4002830D300203068
:10133000D2007730D1002908D8002808D700270824
:10134000D6002608D5008A1140218A157A08C700E0
:101350007908C6007808C5007708C40083144708D8
:10136000CB004608CA004508C9004408C800293017
:10137000CF005C30CE006F30CD007F30CC008A11C2
:101380007F228A157A08C7007908C6007808C50048
:101390007708C4004708CB004608CA004508C900C2
:1013A0004408C8009630CF004330CE000B30CD004B
:1013B0007A30CC008A11B5218A157A08B5007908EF
:1013C000B4007808B3007708B2001030F8001F08A6
:1013D000C73978049F00A630F700F70BED2900000D
:1013E0001F151F19F1291E08FA0083161E08831203
:1013F000C4001E08C5008A1123218A157A08A90095
:101400007908A8007808A7007708A600D401D301BE
:101410002030D2008130D1002908D8002808D70018
:101420002708D6002608D5008A1140218A157A0897
:10143000C7007908C6007808C5007708C4004708C7
:10144000CB004608CA004508C9004408C800CF01BF
:10145000C030CE007F30CD008830CC008A11B5215D
:101460008A157A08C7007908C6007808C500770889
:10147000C4004708CB004608CA004508C900440814
:10148000C800FA30CF007E30CE002A30CD007D304B
:10149000CC008A11B5218A157A08B1007908B0000C
:1014A0007808AF007708AE001830F8001F08C73979
:1014B00078049F006430C7008A1157208A151F15D1
:1014C0001F19602A1E08FA0083161E088312C40022
:1014D0001E08C5008A1123218A157A08A9007908F7
:1014E000A8007808A7007708A6000A30D4002830A2
:1014F000D3002030D2007730D1002908D800280846
:10150000D7002708D6002608D5008A1140218A1561
:101510007A08C7007908C6007808C5007708C400B3
:1015200083144708CB004608CA004508C900440890
:10153000C8007B30CF001430CE001E30CD0080308C
:10154000CC008A117F228A157A08C7007908C60064
:101550007808C5007708C4004708CB004608CA00D1
:101560004508C9004408C8006F30CF001230CE00D3
:101570000330CD007B30CC008A11B5218A157A0862
:10158000B9007908B8007808B7007708B6002D08C8
:10159000C7002C08C6002B08C5002A08C400CB01D0
:1015A000CA016030C9008230C8008A11C02B8A1578
:1015B0000318DC2A031DE82A831608138312081374
:1015C0008316881383128813831688128312881255
:1015D00028309500C4018A1198208A152D300317F0
:1015E0008D0000308F00031008300313C4008A11EF
:1015F00001248A15893084002D08C7002C08C600F4
:101600002B08C5002A08C4000230C8008A11A7248C
:101610008A152030D1008A119E208A155630D100BB
:101620008A119E208A150430C400FA30C7008A113E
:1016300057208A15C40B152B1430C4008A111121B0
:101640008A150130C6008A116B208A153230C70016
:101650008A1157208A15C4018A1198208A153430BE
:1016600003178D0000308F00031009300313C400EE
:101670008A1101248A15893084003508C70034088E
:10168000C6003308C5003208C4000230C8008A1101
:10169000A7248A152030D1008A119E208A15413056
:1016A000D1008A119E208A150430C400FA30C70088
:1016B0008A1157208A15C40B562B1430C4008A1186
:1016C00011218A150130C6008A116B208A1532302B
:1016D000C7008A1157208A152D08D4002C08D30082
:1016E0002B08D2002A08D1006630D800D700D600D7
:1016F0007E30D5008A1140218A157A08BD0079080C
:10170000BC007808BB007708BA00C4018A11982091
:101710008A153B3003178D0000308F008A110313A8
:10172000B5208A150330C4008A110B218A1589302F
:1017300084003D08C7003C08C6003B08C5003A08C5
:10174000C4000230C8008A11A7248A152030D100B5
:101750008A119E208A155730D1008A119E208A1541
:101760000430C400FA30C7008A1157208A15C40B10
:10177000B22B1430C4008A1111218A150130C60021
:101780008A116B208A153230C7008A1157208A15BA
:10179000C4018A1198208A15423003178D00003049
:1017A0008F00031009300313C4008A1101248A1525
:1017B000893084003108C7003008C6002F08C500F2
:1017C0002E08C4000230C8008A11A7248A152030D0
:1017D000D1008A119E208A155630D1008A119E2090
:1017E0008A150430C400FA30C7008A1157208A15C0
:1017F000C40BF32B1430C4008A1111218A15013057
:10180000C6008A116B208A153230C7008A11572012
:101810008A15C4018A1198208A15493003178D0052
:1018200000308F00031009300313C4008A11012413
:101830008A15893084003908C7003808C60037087F
:10184000C5003608C4000230C8008A11A7248A15D2
:101850002030D1008A119E208A154130D1008A1192
:101860009E208A150430C400FA30C7008A11572020
:101870008A15C40B342C1430C4008A1111218A1526
:101880000130C6008A116B208A153230C7008A11D8
:1018900057208A153108D4003008D3002F08D20011
:1018A0002E08D1009A30D8009930D7001930D600D0
:1018B0007F30D5008A1140218A157A08C100790845
:1018C000C0007808BF007708BE00C4018A119820C4
:1018D0008A15503003178D0000308F008A110313D2
:1018E000B5208A150330C4008A110B218A1589306E
:1018F00084004108C7004008C6003F08C5003E08F4
:10190000C4000230C8008A11A7248A152030D100F3
:101910008A119E208A155730D1008A119E208A157F
:101920000430C400FA30C7008A1157208A15C40B4E
:10193000922C1430C4008A1111218A150130C6007E
:101940008A116B208A153230C7008A1157208A15F8
:04195000F728630011
:02400E00723FFF
:00000001FF
;PIC16F877
;CRC=C174  CREATED="08-May-19 16:18"
