:1000000008308A0000280000502B20236532200091
:10001000C3376E3B6539F3346F37A02B693A6800FC
:10002000453CE939F434EE33A02AD0290001CD3023
:10003000E4322031791D0001C630693D6137AC29B9
:10004000E830EB347200CD30E4322031791D00010C
:1000500041376410C8306D3D6100D6274C2AC1235A
:10006000451D2533202B0000C32A52294527541D46
:100070002533A02000014927D02A5410D027D722A9
:10008000521D0001D6274C2AC123451DA01266101F
:100090005600C32A52294527541DA012661041005C
:1000A000CF2A5428552A2028CF2B45293A007530CD
:1000B00084008313000803196A280630F800F7014A
:1000C000F70B6028F80B5F287B30F700F70B6628EA
:1000D000800B5D2808008316081083120810831611
:1000E0008601740883128600831688108312881490
:1000F000A630F700F70B7A280000831688108312C9
:10010000881008000230F2009630F5005720F20BFC
:1001100084283830F4006B200E30F4006B2001305E
:10012000F4006B203230F50057208A150A12262879
:1001300080307207F300F4006B200800831608106B
:1001400083120814831686012808831286008316FA
:10015000881083128814A630F700F70BAD28000032
:10016000831688108312881008000B08F2008B1386
:10017000831603178C170C1400000000F21FC5280B
:10018000831203138B178316031783120C087F390E
:1001900003190729F2000D08F3000F08F400720894
:1001A00083160313A80083129E20730803178D0083
:1001B00074088F0003130B08F5008B1383160317C5
:1001C0008C170C1400000000F51FEB28831203139A
:1001D0008B178316031783120C0D0E0D7F3903192D
:1001E0000729F2000D08F3000F08F40072088316C7
:1001F0000313A80083129E20730803178D00740850
:100200008F008D0A03198F0A0313B52803170313F0
:100210000800C0307207F300F4006B200800F301FF
:1002200072087302031820291C30F4006B2002307E
:10023000F4009630F5005720F40B1929F30A102921
:1002400008008E30F7007308F8007208F900FA0110
:10025000F808031D35297908F800F9010830F7027C
:10026000F808031D3529F7013D290310F81B3C2927
:10027000F90DF80DF7033529F8130800831628083F
:100280000319AF29B0002C080319AF29B0070318D0
:1002900050297F30B002031CAF290319AF2954291C
:1002A0008130B0070318AF293008F700F801F901D1
:1002B000FA012908B400B4172A08B3002B08B200C9
:1002C0001830B000B101321C7D292F08FA07031C39
:1002D0006F29F90A031D6F29F80A0319B1172E08AF
:1002E000F907031C7629F80A0319B1172D08AA008B
:1002F000AA172A08F8070318B117B10DF80CF90C62
:10030000FA0CB40CB30CB20C0310B00B6229013020
:10031000F7070318AF29F81B9429B40DFA0DF90D4E
:10032000F80DF7030319AF29B41FA529FA0A031D15
:10033000A529F90A031DA529F80A031DA529F80C0A
:10034000F90CFA0CF70A0319AF292908B1002D0896
:10035000B106B11FAD29F817B329F813B329F70176
:10036000F801F901FA01831208007B080319872AB2
:100370008316A8002008031DBF298312872AA8021C
:10038000031CC9297F30A807031CC8298312872AA8
:10039000D3298130A8020318CF298312872A031D8D
:1003A000D3298312872A2808F700F801F901FA01F6
:1003B000A7017C08A600A6177D08A5007E08A4005A
:1003C0001930A8002308A4020318F6290130A50259
:1003D0000318F629A6020318F629A7020318F6291E
:1003E000A70AA60AA50A2308A407282A2208A50204
:1003F0000318112A0130A6020318112AA7020318B4
:10040000112AA70AA60A2208A5072308A407031C85
:10041000282AA50A031D282AA60A031D282AA70A96
:10042000282A21088038A6020318272A0130A702AB
:100430000318272AA70A21088038A6072208A5073B
:10044000031C052AA60A031D052AA70A052A7A14F1
:10045000A80B2B2A362A0310A40DA50DA60DA70D57
:100460000310FA0DF90DF80DA90DE229291C3E2AF9
:100470000310F80CF90CFA0CA90C422AF70B422ACB
:100480008312872AA91B6B2A0310A40DA50DA60DA4
:10049000A70D2308A4020318572A0130A502031848
:1004A000572AA6020318572AA702031C7C2A2208EF
:1004B000A5020318622A0130A6020318622AA702C5
:1004C000031C7C2A21088038A60203186B2A0130FD
:1004D000A702031C7C2AFA0A031D7C2AF90A031DC1
:1004E0007C2AF80A031D7C2AF70A031D792A831245
:1004F000872AF80CF90CFA0C7C08A8002108A80639
:10050000A81F842AF8178C2AF8138C2A8312F70163
:10051000F801F901FA018316831208008030831C68
:10052000942A8316A10683128316A601A7017C08CC
:10053000A5002108A5067B080319822BA400F7005B
:10054000200803198B2BA4020319272B031CE52A6F
:100550002108AA00AA172208A9002308A800A701B9
:100560000310AA0CA90CA80CA70CA40BAF2AA51F5A
:10057000BC2A26149F2B2610241026167E308400B9
:100580008313B42B2612A51BCF2A241CDA2AAA0C0B
:10059000A90CA80CA70CF70A03199A2BDA2AAA1B94
:1005A000DD2A0310A70DA80DA90DAA0DF703031945
:1005B0009A2BCF2A2617472B26137C08A500A51FA8
:1005C000E32AAA17932BAA13932B2008A400F70061
:1005D0007B08A4027C08AA00AA177D08A9007E084F
:1005E000A800A7010310AA0CA90CA80CA70CA40B27
:1005F000F12AA51FFE2AA6149F2BA6102410A616CA
:10060000A33084008313B42BA612A51B112B241C2A
:100610001C2BAA0CA90CA80CA70CF70A03199A2BDF
:100620001C2BAA1B1F2B0310A70DA80DA90DAA0D8B
:10063000F70303199A2B112BA617472BA613210892
:10064000A500A51F252BAA17932BAA13932B2108CE
:10065000AA00AA172208A9002308A800A51F342B66
:10066000AA1326159F2B2611A70124107E30840083
:100670008313B42BA51B5D2B7C08A500241C472BE2
:10068000AA0CA90CA80CA70CF70A03199A2BA71FF0
:10069000582BA80A031D582BA90A031D582BAA0A78
:1006A000031D582BAA0CA90CA80CF70A03199A2BA6
:1006B000261BDC2AA61B1E2B7C2B8030AA06AA1F19
:1006C000652B9F2B2108A500722B7C08A500AA088A
:1006D000031D722BA908031D722BA808031D722B82
:1006E000F701932BAA1B7C2B0310A70DA80DA90DB6
:1006F000AA0DF70B722B9A2BA51F802BAA17932BF1
:10070000AA13932B2008F7002108AA002208A900A9
:100710002308A800932B7B08F7007C08AA007D081B
:10072000A9007E08A8002A08F8002908F90028086E
:10073000FA00D22BF701F801F901FA01D22BA70137
:10074000A809A909AA09A709A70A031DAD2BA80A88
:10075000031DAD2BA90A0319AA0A2618BB2AA6183D
:10076000FD2A2619332B622B0008A807031CBE2B79
:10077000A90A031DBE2BAA0A031924148403000826
:10078000A907031CC62BAA0A031924148403000812
:10079000801F803AAA0703182414261AC22AA61A10
:1007A000042B3A2B831208000B08F3008B138316DB
:1007B00003178C170C1400000000F31FE42B8312A6
:1007C00003138B178316031703180D2C83120C08C1
:1007D0007F39F3000D08F4000F08F5007308831645
:1007E0000313A80083129E20740803178D00750858
:1007F0008F0003130B08F6008B13831603178C1757
:100800000C1400000000F61F0A2C831203138B1730
:1008100083160317F20B0D2C2B2C83120C0D0E0DCF
:100820007F39F3000D08F4000F08F50073088316F4
:100830000313A80083129E20740803178D00750807
:100840008F008D0A03198F0A0310F20B282C2A2C13
:100850000313D42B83168312031308008318332C3D
:10086000B03084008313F701F801F901FA0183160F
:10087000B001B101B201B3012F082E042D042C04E4
:100880000319722C2030B4000310A80DA90DAA0D75
:10089000AB0DB00DB10DB20DB30D2F083302031D1A
:1008A0005B2C2E083202031D5B2C2D083102031D28
:1008B0005B2C2C083002031C6C2C2C08B0022D0879
:1008C000031C2D0FB1022E08031C2E0FB2022F089D
:1008D000031C2F0FB3020314F70DF80DF90DFA0DD9
:1008E000B40B442C30088000840A31088000840A4C
:1008F00032088000840A330880008312080004084C
:100900008316A0007608A2000319A12C7508AB007D
:100910007408AA007308A9007208A800AF01AE010C
:100920002030AD008230AC0083123E217A08F50001
:100930007908F4007808F3007708F2008316A20B18
:10094000862C7508AB007408AA007308A900720809
:10095000A8002808B63CA800FA012908AC00A9178D
:100960000310A90CAA0CAB0CFA0CF90CF80CF70C40
:10097000A80BB02CAC1FC72CF709F809F909FA0924
:10098000F70A0319F80A0319F90A0319FA0A7A0887
:10099000F5007908F4007808F3007708F200F51FF5
:1009A000DE2CA003A016F209F309F409F509F20AF6
:1009B0000319F30A0319F40A0319F50A3B30A700D7
:1009C0009A30A600CA30A500A4010A30A200760819
:1009D0000319A00A83147230840083137508AB00D6
:1009E0007408AA007308A9007208A8002708AF00BD
:1009F0002608AE002508AD002408AC0083122E2482
:100A00007808F708031D1B2D760A83162202031DA2
:100A10000B2D83121B2D200803191E2D0F392202C6
:100A20000319142D0318562DA01B562D201B1E2D07
:100A30002030502D831220308316A005A01E2E2DAD
:100A4000A0127608031DA0037708A0002D30A8008F
:100A500083129E2083162008F700A0017608220248
:100A6000031D3E2D7708A0002E30A80083129E2083
:100A700083162008F7002030A00500303030A01E7B
:100A8000502DA0127608031DA0037708A0002D307A
:100A9000A80083129E2083162008F700A0013030A2
:100AA000F7077708A80083129E2083168310270873
:100AB000AB002608AA002508A9002408A800AF0159
:100AC000AE01AD010A30AC0083122E247A088316E1
:100AD000A7007908A6007808A5007708A400A20B53
:100AE000EA2C8312080073088316A0007C08A00675
:100AF000A01F7F2D03110310F31B0314B22D7308E5
:100B0000A0007B08A1007208A10203198D2DA01F6F
:100B1000B22D0308013A8300B22D7C08A1007308AE
:100B2000A1020319992DA01FB22D0308013A8300D9
:100B3000B22D7D08A1007408A1020319A52DA01FE4
:100B4000B22D0308013A8300B22D7E08A10075087A
:100B5000A1020319B12DA01FB22D0308013A830091
:080B6000B22D031083120800FE
:1010000003081F398300A901A801A701A601AD01AA
:10101000AC01AB01AA01B101B001AF01AE012830B2
:10102000DB002330DC003130DD000130DE00FF303A
:10103000DF0083161F149F141F159F118313831243
:10104000A001A1015B08DA008A1182288A158316A3
:101050001F109F101F119F1183121F179F138316BC
:101060009F1783121F14DF105F08831687008312F7
:1010700087105F115F0883168700831207110C30F9
:1010800097000030F8000438920031308316920047
:101090008312E0010330F2008A1198208A1504308F
:1010A00003178D0000308F008A110313B5208A15B5
:1010B000F2018A1109218A15083003178D000030CA
:1010C0008F008A110313B5208A150430F200FA301C
:1010D000F5008A1157208A15F20B67281430F200A8
:1010E0008A110F218A150130F4008A116B208A15AC
:1010F0003230F5008A1157208A15F2018A119820A2
:101100008A15103003178D0000308F008A110313E9
:10111000B5208A150430F200FA30F5008A11572004
:101120008A15F20B8C281430F2008A110F218A15CF
:101130000130F4008A116B208A153230F5008A11D3
:1011400057208A150330F2008A1198208A1517302B
:1011500003178D0000308F008A110313B5208A1504
:10116000F2018A1109218A151C3003178D00003005
:101170008F008A110313B5208A150430F200FA306B
:10118000F5008A1157208A15F20BBF281430F2009F
:101190008A110F218A150130F4008A116B208A15FB
:1011A0003230F5008A1157208A150330F2008A1177
:1011B00098208A15233003178D0000308F008A1184
:1011C0000313B5208A150230F2008A1109218A150D
:1011D000283003178D0000308F008A110313B520CB
:1011E0008A150430F200FA30F5008A1157208A156A
:1011F000F20BF3281430F2008A110F218A15E00A4D
:10120000E00803194A280130F4008A116B208A157E
:101210003230F5008A1157208A158316081383127D
:1012200008175F105F088316870083120714831660
:10123000881383128817831608118312081500304B
:10124000F8001F08C73978049F00A630F700F70B95
:10125000272900001F151F192B291E08FA008316C5
:101260001E08F2007A08F3008A11831221218A15E0
:101270007A08B5007908B4007808B3007708B2009E
:101280008316AB01AA012030A9008130A800831287
:1012900035088316AF00831234088316AE0083121C
:1012A00033088316AD00831232088316AC008A110E
:1012B00083123E218A157A08F5007908F40078082F
:1012C000F3007708F2007508FE007408FD0073084B
:1012D000FC007208FB008316A301C030A2007F301F
:1012E000A1008830A0008A118312B5218A157A08DE
:1012F000F5007908F4007808F3007708F200750823
:10130000FE007408FD007308FC007208FB000C303E
:101310008316A3000230A2002B30A1007C30A00075
:101320008A118312B5218A157A08B9007908B800A4
:101330007808B7007708B6000830F8001F08C739EA
:1013400078049F006430F5008A1157208A151F1514
:101350001F19A8291E08FA0083161E08F2007A0831
:10136000F3008A11831221218A157A08B5007908C1
:10137000B4007808B3007708B2000A308316AB00D7
:101380002830AA002030A9007730A8008312350841
:101390008316AF00831234088316AE00831233081D
:1013A0008316AD00831232088316AC008A118312B3
:1013B0003E218A157A08F5007908F4007808F300D0
:1013C0007708F20083147508FE007408FD007308A6
:1013D000FC007208FB007B308316A3001430A200CF
:1013E0001E30A1008030A0008A1183128E228A153F
:1013F0007A08F5007908F4007808F3007708F2001D
:101400007508FE007408FD007308FC007208FB00FC
:101410006F308316A3001230A2000330A1007B308E
:10142000A0008A118312B5218A157A08C1007908B3
:10143000C0007808BF007708BE001030F8001F0811
:10144000C73978049F00A630F700F70B252A000063
:101450001F151F19292A1E08FA0083161E08F200FC
:101460007A08F3008A11831221218A157A08B500BF
:101470007908B4007808B3007708B2008316AB018E
:10148000AA012030A9008130A800831235088316F4
:10149000AF00831234088316AE008312330883161C
:1014A000AD00831232088316AC008A1183123E21EC
:1014B0008A157A08F5007908F4007808F3007708AF
:1014C000F2007508FE007408FD007308FC00720845
:1014D000FB008316A301C030A2007F30A10088303A
:1014E000A0008A118312B5218A157A08F5007908BF
:1014F000F4007808F3007708F2007508FE0074081D
:10150000FD007308FC007208FB00FA308316A3008C
:101510007E30A2002A30A1007D30A0008A11831203
:10152000B5218A157A08BD007908BC007808BB008F
:101530007708BA001830F8001F08C73978049F00F0
:101540006430F5008A1157208A151F151F19A62A25
:101550001E08FA0083161E08F2007A08F3008A11AA
:10156000831221218A157A08B5007908B400780819
:10157000B3007708B2000A308316AB002830AA0007
:101580002030A9007730A800831235088316AF00F9
:10159000831234088316AE00831233088316AD001D
:1015A000831232088316AC008A1183123E218A15F9
:1015B0007A08F5007908F4007808F3007708F2005B
:1015C00083147508FE007408FD007308FC0072089F
:1015D000FB007B308316A3001430A2001E30A10054
:1015E0008030A0008A1183128E228A157A08F500B5
:1015F0007908F4007808F3007708F2007508FE0017
:101600007408FD007308FC007208FB006F3083163D
:10161000A3001230A2000330A1007B30A0008A1189
:101620008312B5218A157A08C5007908C4007808A4
:10163000C3007708C200F2018A1198208A152D3064
:1016400003178D0000308F0003100830F2008A115C
:101650000313D4238A15893084003908F50038082B
:10166000F4003708F3003608F2000230F6008A1161
:101670007F248A1520308316A8008A1183129E20A9
:101680008A1556308316A8008A1183129E208A1567
:101690000430F200FA30F5008A1157208A15F20B57
:1016A0004A2B1430F2008A110F218A150130F40000
:1016B0008A116B208A153230F5008A1157208A155D
:1016C000F2018A1198208A15343003178D000030FA
:1016D0008F0003100830F2008A110313D4238A15F7
:1016E000893084004108F5004008F4003F08F30009
:1016F0003E08F2000230F6008A117F248A1520305D
:101700008316A8008A1183129E208A154130831601
:10171000A8008A1183129E208A150430F200FA3044
:10172000F5008A1157208A15F20B8F2B1430F20026
:101730008A110F218A150130F4008A116B208A1555
:101740003230F5008A1157208A1539088316AB000C
:10175000831238088316AA00831237088316A9005B
:10176000831236088316A800831241088316AF003F
:10177000831240088316AE0083123F088316AD0023
:1017800083123E088316AC008A1183123E218A150B
:101790007A08C9007908C8007808C7007708C60029
:1017A000F2018A1198208A153B3003178D00003012
:1017B0008F008A110313B5208A150330F2008A11B5
:1017C00009218A15893084004908F5004808F40089
:1017D0004708F3004608F2000230F6008A117F2421
:1017E0008A1520308316A8008A1183129E208A153C
:1017F00057308316A8008A1183129E208A15043060
:10180000F200FA30F5008A1157208A15F20B012CEC
:101810001430F2008A110F218A150130F4008A1168
:101820006B208A153230F5008A1157208A15F20193
:101830008A1198208A15423003178D0000308F00DE
:1018400003100930F2008A110313D4238A1589305A
:1018500084003D08F5003C08F4003B08F3003A081A
:10186000F2000230F6008A117F248A152030831698
:10187000A8008A1183129E208A1556308316A8006C
:101880008A1183129E208A150430F200FA30F50086
:101890008A1157208A15F20B462C1430F2008A1157
:1018A0000F218A150130F4008A116B208A1532301D
:1018B000F5008A1157208A15F2018A1198208A159D
:1018C000493003178D0000308F0003100930F200FB
:1018D0008A110313D4238A15893084004508F50042
:1018E0004408F4004308F3004208F2000230F60016
:1018F0008A117F248A1520308316A8008A1183124A
:101900009E208A1541308316A8008A1183129E20DA
:101910008A150430F200FA30F5008A1157208A1532
:10192000F20B8B2C1430F2008A110F218A15013032
:10193000F4008A116B208A153230F5008A11572085
:101940008A153D088316AB0083123C088316AA0053
:1019500083123B088316A90083123A088316A80055
:10196000831245088316AF00831244088316AE0025
:10197000831243088316AD00831242088316AC001D
:101980008A1183123E218A157A08CD007908CC008D
:101990007808CB007708CA00F2018A1198208A15CE
:1019A000503003178D0000308F008A110313B520CB
:1019B0008A150330F2008A1109218A1589308400C2
:1019C0004D08F5004C08F4004B08F3004A08F200FB
:1019D0000230F6008A117F248A1520308316A80071
:1019E0008A1183129E208A1557308316A8008A1107
:1019F00083129E208A150430F200FA30F5008A1115
:101A000057208A15F20BFD2C1430F2008A110F2199
:101A10008A150130F4008A116B208A153230F500E6
:101A20008A1157208A153D08F5003C08F4003B0850
:101A3000F3003A08F200CD30FE00CC30FD003C301F
:101A4000FC008230FB008A1173258A15031C2E2DA1
:101A50005F135F0883168700831207173D08F500A0
:101A60003C08F4003B08F3003A08F200FE01FD01D7
:101A70004830FC008230FB008A1173258A15031C54
:101A80004D2D5F135F088316870083120717DF133E
:101A90005F0883168700831287173D08F5003C080E
:101AA000F4003B08F3003A08F200FE01FD0150305B
:101AB000FC008230FB008A1173258A15031C702DEF
:101AC0005F135F088316870083120717DF135F0811
:101AD000831687008312871783160812831208164D
:101AE0003D08F5003C08F4003B08F3003A08F2001A
:101AF000FE01FD015830FC008230FB008A11732585
:101B00008A15031C972D5F135F08831687008312C5
:101B10000717DF135F088316870083128717831662
:101B200008128312081683168812831288168314EB
:101B30004908FE004808FD004708FC004608FB0075
:101B400031088316A300831230088316A200831283
:101B50002F088316A10083122E088316A0008A1175
:101B600083128E228A157A08E4007908E300780847
:101B7000E2007708E10083143908FE003808FD0010
:101B80003708FC003608FB0029088316A3008312DF
:101B900028088316A200831227088316A100831247
:101BA00026088316A0008A1183128E228A157A08CD
:101BB000E8007908E7007808E6007708E500831474
:101BC0004108FE004008FD003F08FC003E08FB0005
:101BD0002D088316A30083122C088316A2008312FB
:101BE0002B088316A10083122A088316A0008A11ED
:101BF00083128E228A157A08EC007908EB007808A7
:101C0000EA007708E9006408FE006308FD00620846
:101C1000FC006108FB0068088316A30083126708B4
:101C20008316A200831266088316A100831265083A
:101C30008316A0008A118312B5218A157A08F00054
:101C40007908EF007808EE007708ED006808F500E5
:101C50006708F4006608F3006508F200FE01FD0164
:101C6000FC01FB018A1173258A150319662FF50102
:101C7000F401F301F2017008FE006F08FD006E0828
:101C8000FC006D08FB008A1173258A15031C832E46
:101C90005E08F1074908B1004808B0004708AF00E6
:101CA0004608AE003908A9003808A8003708A70080
:101CB0003608A6004108AD004008AC003F08AB0064
:101CC0003E08AA005C08710203186B2E5C08F10044
:101CD00071089500822E71085D02031C732E5D0849
:101CE0007102031D782E5D08F10071089500822EA7
:101CF0005D0871020318822E71085C020318822E9F
:101D000071089500662F7008F5006F08F4006E08E2
:101D1000F3006D08F200FE01FD01FC01FB018A11D8
:101D200073258A15031CCF2E5E08F1024908B10005
:101D30004808B0004708AF004608AE003908A900BF
:101D40003808A8003708A7003608A6004108AD00EB
:101D50004008AC003F08AB003E08AA005C087102D6
:101D60000318B72E5C08F10071089500CE2E71089B
:101D70005D02031CBF2E5D087102031DC42E5D08A9
:101D8000F10071089500CE2E5D0871020318CE2E69
:101D900071085C020318CE2E71089500662FF501BC
:101DA000F401F301F2016C08FE006B08FD006A0803
:101DB000FC006908FB008A1173258A15031C1B2F80
:101DC0005E08F1074908B1004808B0004708AF00B5
:101DD0004608AE003908A9003808A8003708A7004F
:101DE0003608A6004108AD004008AC003F08AB0033
:101DF0003E08AA005C0871020318032F5C08F1007A
:101E0000710895001A2F71085D02031C0B2F5D08E5
:101E10007102031D102F5D08F100710895001A2F43
:101E20005D08710203181A2F71085C0203181A2F3B
:101E300071089500662F6C08F5006B08F4006A08BD
:101E4000F3006908F200FE01FD01FC01FB018A11AB
:101E500073258A15031C662F5E08F1024908B1003C
:101E60004808B0004708AF004608AE003908A9008E
:101E70003808A8003708A7003608A6004108AD00BA
:101E80004008AC003F08AB003E08AA005C087102A5
:101E900003184F2F5C08F10071089500662F710838
:101EA0005D02031C572F5D087102031D5C2F5D0846
:101EB000F10071089500662F5D0871020318662F06
:101EC00071085C020318662F710895000D296300E4
:02400E00723FFF
:00000001FF
;PIC16F877
;CRC=660B  CREATED="01-May-19 14:09"
