:1000000003308A00932B0000D4224D283A10253368
:10001000A0210000283084008313000803191D2844
:100020000630F800F701F70B1328F80B12287B3085
:10003000F700F70B1928800B10280800831608100A
:1000400083120810831686018312290886008316FE
:10005000881083128814A630F700F70B2D280000B3
:10006000831688108312881008000230A70096308B
:10007000A8000A20A70B37283830A9001E200E3010
:10008000A9001E200130A9001E203230A8000A203D
:100090008A110A12A02B80302707A800A9001E2071
:1000A0008A110A12C22B8E30F7002808F8002708A0
:1000B000F900FA01F808031D67287908F800F9012A
:1000C0000830F702F808031D6728F7016F280310AE
:1000D000F81B6E28F90DF80DF7036728F8138A113D
:1000E0000A12C72B34080319E228BC003808031988
:1000F000E228BC07031883287F30BC02031CE228D7
:100100000319E22887288130BC070318E2283C083D
:10011000F700F801F901FA013508C000C0173608E8
:10012000BF003708BE001830BC00BD013E1CB0281F
:100130003B08FA07031CA228F90A031DA228F80AA3
:100140000319BD173A08F907031CA928F80A03196F
:10015000BD173908B600B6173608F8070318BD17DB
:10016000BD0DF80CF90CFA0CC00CBF0CBE0C031042
:10017000BC0B95280130F7070318E228F81BC728A5
:10018000C00DFA0DF90DF80DF7030319E228C01F91
:10019000D828FA0A031DD828F90A031DD828F80A16
:1001A000031DD828F80CF90CFA0CF70A0319E228F9
:1001B0003508BD003908BD06BD1FE028F817E62840
:1001C000F813E628F701F801F901FA0108002B08F5
:1001D0000319AC29B7002F080319AC29B702031C77
:1001E000F6287F30B7070318AC29FC288130B70206
:1001F000031CAC290319AC293708F700F801F901F1
:10020000FA01B6012C08B500B5172D08B4002E0868
:10021000B3001930B7003208B30203181F290130A8
:10022000B40203181F29B50203181F29B6020318C8
:100230001F29B60AB50AB40A3208B3075129310892
:10024000B40203183A290130B50203183A29B6025C
:1002500003183A29B60AB50A3108B4073208B307B9
:10026000031C5129B40A031D5129B50A031D512944
:10027000B60A512930088038B502031850290130D8
:10028000B60203185029B60A30088038B50731087D
:10029000B407031C2E29B50A031D2E29B60A2E29E0
:1002A0007A14B70B54295F290310B30DB40DB50DA3
:1002B000B60D0310FA0DF90DF80DB80D0B29381C09
:1002C00067290310F80CF90CFA0CB80C6A29F7032B
:1002D0000319AC29B81B93290310B30DB40DB50D48
:1002E000B60D3208B30203187F290130B402031897
:1002F0007F29B50203187F29B602031CA229310801
:10030000B40203188A290130B50203188A29B602FB
:10031000031CA22930088038B50203189329013044
:10032000B602031CA229FA0A031DA229F90A031D19
:10033000A229F80A031DA229F70A0319AC29F80C0F
:10034000F90CFA0C2C08B7003008B706B71FAA2919
:10035000F817B029F813B029F701F801F901FA01EB
:10036000080083160810831208148316860183126E
:10037000340886008316881083128814A630F7008C
:10038000F70BC0290000831688108312881008001C
:100390000B08A8008B13831603178C170C1400008E
:1003A000000083120313A81B8B170318FF290317E0
:1003B0000C087F390313A80003170D080313A900C5
:1003C00003170F080313AA002808B400B121290855
:1003D00003178D0003132A0803178F0003130B085C
:1003E000AB008B13831603178C170C14000000004E
:1003F00083120313AB1B8B17A70BFF291E2A0317AE
:100400000C0D0E0D7F390313A80003170D080313FD
:10041000A90003170F080313AA002808B400B1218C
:10042000290803178D0003132A0803178F008D0A6C
:1004300003198F0A03100313A70BC8298A110A1284
:10044000192C8318262A3C3084008313F701F80105
:10045000F901FA01BC01BD01BE01BF013B083A042C
:10046000390438040319642A2030C0000310B40D85
:10047000B50DB60DB70DBC0DBD0DBE0DBF0D3B08C6
:100480003F02031D4D2A3A083E02031D4D2A39083A
:100490003D02031D4D2A38083C02031C5E2A380821
:1004A000BC023908031C390FBD023A08031C3A0F7D
:1004B000BE023B08031C3B0FBF020314F70DF80DEF
:1004C000F90DFA0DC00B362A3C088000840A3D085D
:1004D0008000840A3E088000840A3F0880000800EB
:1004E0000408AC002B08AE0003198F2A2A08B700B5
:1004F0002908B6002808B5002708B400BB01BA01D6
:100500002030B9008230B80072207A08AA00790839
:10051000A9007808A8007708A700AE0B762A2A0859
:10052000B7002908B6002808B5002708B400340829
:10053000B63CB400FA013508B800B5170310B50C85
:10054000B60CB70CFA0CF90CF80CF70CB40B9E2A8D
:10055000B81FB52AF709F809F909FA09F70A0319C2
:10056000F80A0319F90A0319FA0A7A08AA0079089D
:10057000A9007808A8007708A700AA1FCC2AAC0316
:10058000AC16A709A809A909AA09A70A0319A80A64
:100590000319A90A0319AA0A3B30B3009A30B20022
:1005A000CA30B100B0010A30AE002B080319AC0A02
:1005B00083142730840083132A08B7002908B60063
:1005C0002808B5002708B4003308BB003208BA0079
:1005D0003108B9003008B80021227808F708031D57
:1005E000042B2B0A2E020319042B2C080319062BAB
:1005F0000F392E020319FE2A0318362BAC1B362B9B
:100600002C1B062B2030322B2030AC05AC1E142BBB
:10061000AC122B08031DAC037708AC002D30B400DE
:10062000B1212C08F700AC012B082E02031D222B50
:100630007708AC002E30B400B1212C08F700203030
:10064000AC0500303030AC1E322BAC122B08031D31
:10065000AC037708AC002D30B400B1212C08F700B2
:10066000AC013030F7077708B400B12183103308AC
:10067000B7003208B6003108B5003008B400BB013D
:10068000BA01B9010A30B80021227A08B30079080A
:10069000B2007808B1007708B000AE0BD82A8A11F2
:1006A0000A12262C2808AF002C08AF06AF1F5D2BBE
:1006B00003110310A81B0314902B2808AF002B086C
:1006C000B0002708B00203196B2BAF1F902B030853
:1006D000013A8300902B2C08B0002808B0020319BF
:1006E000772BAF1F902B0308013A8300902B2D0826
:1006F000B0002908B0020319832BAF1F902B030809
:10070000013A8300902B2E08B0002A08B00203198A
:100710008F2BAF1F902B0308013A8300902B0310FF
:100720008A110A123B2C03081F398300FF30A600F0
:1007300083161F149F141F159F11831383123528CE
:1007400083161F109F101F119F1183121F139F13D9
:1007500083169F1783121F140030F8001F08C73933
:1007600078049F00A630F700F70BB42B00001F158C
:100770001F19B82B83161E088312A0001E08A100A3
:10078000A7014B282108A8002008A7005328B7017B
:10079000B6014030B5007F30B4007A08BB0079085C
:1007A000BA007808B9007708B80072207A08AA0061
:1007B0007908A9007808A8007708A7007A08AE0091
:1007C0007908AD007808AC007708AB00B201C03002
:1007D000B1007F30B0008830AF00E7207A08AA006F
:1007E0007908A9007808A8007708A7007A08AE0061
:1007F0007908AD007808AC007708AB000A30B20089
:10080000D730B1002330B0007830AF00E7207A084D
:10081000A5007908A4007808A3007708A200043096
:1008200003178D0000308F00031006300313A7005C
:10083000C829893084002508AA002408A9002308B3
:10084000A8002208A7000230AB00702A2030B400B4
:10085000B1214330B400B121AA01A9012030A80080
:100860008430A7002508AE002408AD002308AC00A2
:100870002208AB00522B03183F2C031D492C2610D5
:10088000260883168700831207146430A8000A2004
:100890004F2C261026088316870083120710AC2BD6
:0208A0006300F3
:02400E00723FFF
:00000001FF
;PIC16F877
;CRC=403A  CREATED="14-Mar-19 08:48"
