:100000000B308A00162B00000A108A100A11820792
:1000100028340C3401340634553876103D1025331D
:10002000202B00005531613AA01EA0126610560028
:100030004931613AA01EA01266104110AB152B0089
:100040004931613AA01EA01266104110AD162D0074
:10005000D4326D38A01EA01266104300C931E830BA
:10006000F23365103D102533A02000016136703455
:1000700061103D102533A51200014639E538F532EF
:10008000EE3179103D1035186B247A00453CE3328F
:10009000F339693B6510E434F331E830F23365003D
:1000A000CC3761322032E939E3376E37E531F4324B
:1000B00064005A3084008313000803196C2806304A
:1000C000F800F701F70B6228F80B61287B30F70086
:1000D000F70B6828800B5F280800600EF039F700E6
:1000E0000F30060577048600000006140230F70082
:1000F000F70B78287B280000061008008610F030E7
:1001000083168600831206150000061400000608F8
:10011000060E0F39E0000610000006148F28902804
:1001200000000608060E0F39DF00061000308316A7
:1001300086008312600EF700F030F70577085F0441
:10014000F8007808DF00DF1B7F285D1C86105D1833
:10015000861400000611000006105E0EDF000F304E
:10016000DF055F08E0006D205E080F39DF00E0006A
:100170006D20080000308316860083128610061159
:1001800006100F30DA0059200130C8004808033C3F
:10019000031CD2280330E0006D200530DA0059201E
:1001A000C80AC6280230E0006D20C8014808033C98
:1001B000031CE32848080420C900DD014908DE00CB
:1001C0007E20C80AD6288A150A12442B01305B0209
:1001D000FC3E0318F828043E00298030DC00F82893
:1001E000C030DC00F8289430DC00F828D430DC0083
:1001F00001305A02DC07DD015C08DE007E200800C9
:100200000A148A100A118207ED28F028F328F6282C
:1002100059080C3A03191329063A03191D29023A01
:10022000031924292929DD010130DE007E20013057
:10023000A0000230DA0059202E29A00A0130DA008D
:100240002008DB00E6202E29DD011030DE007E20B4
:100250002E290130DD005908DE007E2008008E3096
:10026000F7004D08F8004C08F900FA01F808031DE2
:1002700043297908F800F9010830F702F808031D4E
:100280004329F7014B290310F81B4A29F90DF80DF2
:10029000F7034329F813080048080319112AD4006A
:1002A0004C080319112AD402031C5B297F30D407A0
:1002B0000318112A61298130D402031C112A031961
:1002C000112A5408F700F801F901FA01D30149088D
:1002D000D200D2174A08D1004B08D0001930D40000
:1002E0004F08D002031884290130D1020318842951
:1002F000D20203188429D30203188429D30AD20A0C
:10030000D10A4F08D007B6294E08D10203189F29F9
:100310000130D20203189F29D30203189F29D30A60
:10032000D20A4E08D1074F08D007031CB629D10ABC
:10033000031DB629D20A031DB629D30AB6294D08D2
:100340008038D2020318B5290130D3020318B52929
:10035000D30A4D088038D2074E08D107031C9329D1
:10036000D20A031D9329D30A93297A14D40BB929ED
:10037000C4290310D00DD10DD20DD30D0310FA0DE9
:10038000F90DF80DD50D7029551CCC290310F80C6A
:10039000F90CFA0CD50CCF29F7030319112AD51B38
:1003A000F8290310D00DD10DD20DD30D4F08D00276
:1003B0000318E4290130D1020318E429D2020318FA
:1003C000E429D302031C072A4E08D1020318EF299F
:1003D0000130D2020318EF29D302031C072A4D086B
:1003E0008038D2020318F8290130D302031C072AEF
:1003F000FA0A031D072AF90A031D072AF80A031D32
:10040000072AF70A0319112AF80CF90CFA0C490803
:10041000D4004D08D406D41F0F2AF817152AF81354
:10042000152AF701F801F901FA0108005908031922
:10043000862AE1005D080319862AE1070318272AA6
:100440007F30E102031C862A0319862A2B2A813079
:10045000E1070318862A6108F700F801F901FA019B
:100460005A08E500E5175B08E4005C08E300183073
:10047000E100E201631C542A6008FA07031C462AC3
:10048000F90A031D462AF80A0319E2175F08F9075B
:10049000031C4D2AF80A0319E2175E08DB00DB177C
:1004A0005B08F8070318E217E20DF80CF90CFA0CD8
:1004B000E50CE40CE30C0310E10B392A0130F707DB
:1004C0000318862AF81B6B2AE50DFA0DF90DF80DB5
:1004D000F7030319862AE51F7C2AFA0A031D7C2AE2
:1004E000F90A031D7C2AF80A031D7C2AF80CF90C72
:1004F000FA0CF70A0319862A5A08E2005E08E20697
:10050000E21F842AF8178A2AF8138A2AF701F801C9
:10051000F901FA01080080308318D106D601D7010D
:100520004D08D5005108D5064C0803197B2BD40083
:10053000F70050080319842BD4020319202B031C45
:10054000DE2A5108DA00DA175208D9005308D80019
:10055000D7010310DA0CD90CD80CD70CD40BA82A6D
:10056000D51FB52A5614982B5610541056164F30D6
:1005700084008313AD2B5612D51BC82A541CD32AD2
:10058000DA0CD90CD80CD70CF70A0319932BD32A01
:10059000DA1BD62A0310D70DD80DD90DDA0DF703C3
:1005A0000319932BC82A5617402B56134D08D50014
:1005B000D51FDC2ADA178C2BDA138C2B5008D400C9
:1005C000F7004C08D4024D08DA00DA174E08D900BB
:1005D0004F08D800D7010310DA0CD90CD80CD70C6F
:1005E000D40BEA2AD51FF72AD614982BD61054100C
:1005F000D616533084008313AD2BD612D51B0A2B8D
:10060000541C152BDA0CD90CD80CD70CF70A03198B
:10061000932B152BDA1B182B0310D70DD80DD90DE2
:10062000DA0DF7030319932B0A2BD617402BD61399
:100630005108D500D51F1E2BDA178C2BDA138C2B03
:100640005108DA00DA175208D9005308D800D51F2C
:100650002D2BDA135615982B5611D70154104F3005
:1006600084008313AD2BD51B562B4D08D500541C8D
:10067000402BDA0CD90CD80CD70CF70A0319932BA2
:10068000D71F512BD80A031D512BD90A031D512BFB
:10069000DA0A031D512BDA0CD90CD80CF70A03190E
:1006A000932B561BD52AD61B172B752B8030DA06B9
:1006B000DA1F5E2B982B5108D5006B2B4D08D50007
:1006C000DA08031D6B2BD908031D6B2BD808031DFB
:1006D0006B2BF7018C2BDA1B752B0310D70DD80D64
:1006E000D90DDA0DF70B6B2B932BD51F792BDA175E
:1006F0008C2BDA138C2B5008F7005108DA005208C3
:10070000D9005308D8008C2B4C08F7004D08DA00AC
:100710004E08D9004F08D8005A08F8005908F900C7
:100720005808FA00CB2BF701F801F901FA01CB2B9D
:10073000D701D809D909DA09D709D70A031DA62B89
:10074000D80A031DA62BD90A0319DA0A5618B42AA7
:10075000D618F62A56192C2B5B2B0008D807031C39
:10076000B72BD90A031DB72BDA0A031954148403D3
:100770000008D907031CBF2BDA0A03195414840399
:100780000008801F803ADA0703185414561ABB2A4F
:10079000D61AFD2A332B08001030F8001F08C7397D
:1007A00078049F000A30DA0059201F151F19D62B34
:1007B0001E08CD01CC002F217A08A9007908A800D5
:1007C0007808A7007708A6000A30DA00592029081F
:1007D000CB002808CA002708C9002608C800CF0196
:1007E000C030CE007F30CD008830CC004C217A085C
:1007F000CB007908CA007808C9007708C8007A08D1
:10080000DC007908DB007808DA007708D900E0011D
:10081000DF012030DE008130DD0016227A08CB00B7
:100820007908CA007808C9007708C8007A08DC008F
:100830007908DB007808DA007708D900E001DF01E9
:100840004030DE008130DD0016227A08A9007908E8
:10085000A8007808A7007708A6000030F8001F0855
:10086000C73978049F000A30DA0059201F151F1974
:10087000372C1E08CD01CC002F217A08A50079085D
:10088000A4007808A3007708A2000A30DA005920F3
:100890002508CB002408CA002308C9002208C80084
:1008A000CF01C030CE007F30CD008830CC004C214D
:1008B0007A08CB007908CA007808C9007708C80010
:1008C0007A08DC007908DB007808DA007708D900BC
:1008D000E001DF012030DE008130DD0016227A08E1
:1008E000CB007908CA007808C9007708C8007A08E0
:1008F000DC007908DB007808DA007708D900E0012D
:10090000DF01DE018130DD0016227A08A5007908BA
:10091000A4007808A3007708A2001830F8001F0888
:10092000C73978049F000A30DA0059201F151F19B3
:10093000972C1E08CD01CC002F217A08A900790838
:10094000A8007808A7007708A6000A30DA00592026
:100950003108CB003008CA002F08C9002E08C80093
:10096000CF01C030CE007F30CD008830CC004C218C
:100970007A08CB007908CA007808C9007708C8004F
:100980007A08DC007908DB007808DA007708D900FB
:10099000E001DF012030DE008130DD0016227A0820
:1009A000B1007908B0007808AF007708AE00DC012C
:1009B000DB012030DA008230D9003108E000300855
:1009C000DF002F08DE002E08DD0016227A08CB009B
:1009D0007908CA007808C9007708C80083147A0823
:1009E000CF007908CE007808CD007708CC00D3017D
:1009F000D2014830D1008330D0008B227A08B10078
:100A00007908B0007808AF007708AE000830F80029
:100A10001F08C73978049F000A30DA0059201F15D3
:100A20001F19102D1E08CD01CC002F217A08AD0012
:100A30007908AC007808AB007708AA000A30DA0021
:100A400059202D08CB002C08CA002B08C9002A0801
:100A5000C800CF01C030CE007F30CD008830CC0040
:100A60004C217A08CB007908CA007808C9007708B9
:100A7000C8007A08DC007908DB007808DA0077081B
:100A8000D900E001DF012030DE008130DD001622D8
:100A90007A08AD007908AC007808AB007708AA00A6
:100AA000DC01DB012030DA008230D9002D08E000C3
:100AB0002C08DF002B08DE002A08DD0016227A0849
:100AC000CB007908CA007808C9007708C8008314E9
:100AD0007A08CF007908CE007808CD007708CC00DE
:100AE000D301D2014830D1008330D0008B227A0864
:100AF000AD007908AC007808AB007708AA00203078
:100B0000F8001F08C73978049F000A30DA0059201E
:100B10001F151F19892D1E08CD01CC002F217A0821
:100B2000B9007908B8007808B7007708B6000A302D
:100B3000DA0059203908CB003808CA003708C90044
:100B40003608C800CF01C030CE007F30CD008830DD
:100B5000CC004C217A08CB007908CA007808C9007B
:100B60007708C8007A08DC007908DB007808DA002A
:100B70007708D900E001DF012030DE008130DD00A0
:100B800016227A08B9007908B8007808B700770803
:100B9000B6003908DC003808DB003708DA00360810
:100BA000D900E001DF014830DE008230DD0016228E
:100BB0007A08B9007908B8007808B7007708B60055
:100BC00083143908CF003808CE003708CD00360826
:100BD000CC00D301D2014830D1008330D0008B2229
:100BE0008F30DC00C230DB007530DA007930D9009C
:100BF0007A08E0007908DF007808DE007708DD0079
:100C000016228314CF01CE016830CD008230CC0093
:100C10007A08D3007908D2007808D1007708D0008C
:100C20008B227A08CB007908CA007808C9007708B7
:100C3000C800CD014708CC002F214B08DC004A0832
:100C4000DB004908DA004808D9007A08E000790892
:100C5000DF007808DE007708DD0016227A08BD0084
:100C60007908BC007808BB007708BA0083143908FB
:100C7000CF003808CE003708CD003608CC00D301AD
:100C8000D2014830D1008330D0008B228F30DC007D
:100C9000C230DB007530DA007930D9007A08E00024
:100CA0007908DF007808DE007708DD00162283145B
:100CB0009A30CF009930CE005930CD008230CC0030
:100CC0007A08D3007908D2007808D1007708D000DC
:100CD0008B227A08CB007908CA007808C900770807
:100CE000C800CD014708CC002F214B08DC004A0882
:100CF000DB004908DA004808D9007A08E0007908E2
:100D0000DF007808DE007708DD0016227A08C100CF
:100D10007908C0007808BF007708BE0083142D084A
:100D2000CF002C08CE002B08CD002A08CC003108BB
:100D3000D3003008D2002F08D1002E08D0008B221B
:100D40007A08B5007908B4007808B3007708B200D3
:100D500008004908D0004D08D006D01FB42E03115A
:100D60000310C91B0314E72E4908D0004C08D1001A
:100D70004808D1020319C22ED01FE72E0308013AFA
:100D80008300E72E4D08D1004908D1020319CE2E69
:100D9000D01FE72E0308013A8300E72E4E08D1004A
:100DA0004A08D1020319DA2ED01FE72E0308013AB0
:100DB0008300E72E4F08D1004B08D1020319E62E1D
:100DC000D01FE72E0308013A8300E72E0310080026
:100DD0008E30F7004808F7024908F9004A08F80081
:100DE000F917F7080319FF2E0310F908031DFB2E4E
:100DF000F8080319FF2EF90CF80CF70BF42EC91F95
:100E0000062FF809F909F80A0319F90A08008318E6
:100E10000C2F613084008313F701F801F901FA0106
:100E2000E101E201E301E40160085F045E045D04A6
:100E300003194A2F2030E5000310D90DDA0DDB0D20
:100E4000DC0DE10DE20DE30DE40D60086402031D0D
:100E5000332F5F086302031D332F5E086202031DF8
:100E6000332F5D086102031C442F5D08E1025E0818
:100E7000031C5E0FE2025F08031C5F0FE3026008C1
:100E8000031C600FE4020314F70DF80DF90DFA0DC1
:100E9000E50B1C2F61088000840A62088000840A28
:100EA00063088000840A6408800008008316120822
:100EB0008312CA00CB01CA0A0319CB0A0310CA0D58
:100EC000CB0DCA0DCB0DCE01CD014B08CC004A088D
:100ED000CB00D201D1014908D0004808CF00203012
:100EE000D700D301D401D501D6014E08FA004D0830
:100EF000F9004C08F8004B08F7000310771C8E2F00
:100F00004F08D30750080318500FD407510803188F
:100F1000510FD50752080318520FD607D60CD50C1F
:100F2000D40CD30CFA0CF90CF80CF70CD70B7D2F62
:100F30007A08DC007908DB007808DA007708D90045
:100F4000E001DF010330DE00E830DD00072777082D
:100F5000F900F80CF70CF80CF70C77089500F90D70
:100F6000F90DF90DF90DCF3097053030790597045B
:020F7000080077
:101000000B08CD008B13831603178C170C140000EC
:10101000000083120313CD1B8B1703183928031705
:101020000C087F390313CD0003170D080313CE00FE
:1010300003170F080313CF004D08D9008A110821A8
:101040008A154E0803178D0003134F0803178F00EE
:1010500003130B08D0008B13831603178C170C1483
:101060000000000083120313D01B8B17CC0B392810
:101070005A2803170C0D0E0D7F390313CD000317EB
:101080000D080313CE0003170F080313CF004D08FC
:10109000D9008A1108218A154E0803178D00031301
:1010A0004F0803178F008D0A03198F0A03100313CB
:1010B000CC0B002808000408D1005008D300031905
:1010C0007C284F08DC004E08DB004D08DA004C0895
:1010D000D900E001DF012030DE008230DD008A111E
:1010E00016228A157A08CF007908CE007808CD003C
:1010F0007708CC00D30B61284F08DC004E08DB00DA
:101100004D08DA004C08D9005908B63CD900FA015C
:101110005A08DD00DA170310DA0CDB0CDC0CFA0CD1
:10112000F90CF80CF70CD90B8B28DD1FA228F70956
:10113000F809F909FA09F70A0319F80A0319F90A6B
:101140000319FA0A7A08CF007908CE007808CD0092
:101150007708CC00CF1FB928D103D116CC09CD090F
:10116000CE09CF09CC0A0319CD0A0319CE0A0319F7
:10117000CF0A3B30D8009A30D700CA30D600D5010C
:101180000A30D30050080319D10A83144C3084006C
:1011900083134F08DC004E08DB004D08DA004C08D2
:1011A000D9005808E0005708DF005608DE0055084F
:1011B000DD008A1107278A157808F708031DF32830
:1011C000500A53020319F32851080319F5280F395F
:1011D00053020319ED2803182D29D11B2D29511B6A
:1011E000F528203027292030D105D11E0529D1121C
:1011F0005008031DD1037708D1002D30D9008A1182
:1012000008218A155108F700D10150085302031D27
:1012100015297708D1002E30D9008A1108218A15A6
:101220005108F7002030D10500303030D11E272979
:10123000D1125008031DD1037708D1002D30D900F9
:101240008A1108218A155108F700D1013030F707BB
:101250007708D9008A1108218A1583105808DC0004
:101260005708DB005608DA005508D900E001DF0115
:10127000DE010A30DD008A1107278A157A08D800B6
:101280007908D7007808D6007708D500D30BC52891
:1012900008000B08C8008B13831603178C170C1457
:1012A0000000000083120313C81B8B1703170C08E0
:1012B0007F390319A1290313C80003170D0803136D
:1012C000C90003170F080313CA004808D9008A1180
:1012D00008218A15490803178D0003134A080317CC
:1012E0008F0003130B08CB008B13831603178C1787
:1012F0000C140000000083120313CB1B8B17031781
:101300000C0D0E0D7F390319A1290313C800031713
:101310000D080313C90003170F080313CA00480878
:10132000D9008A1108218A15490803178D00031373
:101330004A0803178F008D0A03198F0A03134929DE
:101340000317031308000718952A0C30D9008A11D7
:1013500008218A150C3003178D0000308F00031010
:1013600006300313CC000020893084002508CF000C
:101370002408CE002308CD002208CC000230D00083
:101380005B202030D9008A1108218A155630D900F7
:101390008A1108218A150130DA000230DB008A1137
:1013A000E6208A15123003178D0000308F000310DD
:1013B00007300313CC000020893084002908CF00B7
:1013C0002808CE002708CD002608CC000230D00027
:1013D0005B202030D9008A1108218A155630D900A7
:1013E0008A1108218A150130DA000330DB008A11E6
:1013F000E6208A15CB01CA01C901C8013108CF0016
:101400003008CE002F08CD002E08CC008A11A92666
:101410008A1503180D2A031D2E2A183003178D0074
:1014200000308F00031007300313CC0000208930F8
:1014300084003108CF003008CE002F08CD002E08E0
:10144000CC000230D0005B201C3003178D00003030
:101450008F00031406300313CC0000203108CB00AA
:101460003008CA002F08C9002E08C800CF01CE01DD
:10147000CD01CC018A11A9268A15031C632A2F08E5
:10148000803AAF00203003178D0000308F0003102A
:1014900007300313CC000020893084003108CF00CE
:1014A0003008CE002F08CD002E08CC000230D0002E
:1014B0005B20243003178D0000308F0003140630AA
:1014C0000313CC0000200130DA000430DB008A1165
:1014D000E6208A15283003178D0000308F00031096
:1014E00007300313CC000020893084003908CF0076
:1014F0003808CE003708CD003608CC000230D000C6
:101500005B202030D9008A1108218A154330D90088
:101510008A1108218A150830C800FA30DA008A11C9
:1015200059208A15C80B8D2A152B0C30D9008A1129
:1015300008218A150130DA000230DB008A11E6202A
:101540008A152E3003178D0000308F0003100A30EB
:101550000313CC000020893084003508CF00340804
:10156000CE003308CD003208CC000230D0005B2022
:101570002030D9008A1108218A154130D9008A11FA
:1015800008218A150130DA000330DB008A11E620D9
:101590008A154508DC004408DB004308DA004208ED
:1015A000D900E001DF014830DE008530DD008A111E
:1015B00016228A157A08CB007908CA007808C90073
:1015C0007708C800363003178D0000308F000310F5
:1015D00008300313CC000020893084004B08CF0072
:1015E0004A08CE004908CD004808CC000230D0009F
:1015F0005B202530D9008A1108218A150130DA00D4
:101600000430DB008A11E6208A153D3003178D0077
:1016100000308F00031349210830C800FA30DA0087
:101620008A1159208A15C80B0E2B080003081F3990
:101630008300FF30A10063308316920004308312D0
:1016400092002111210883168700633083129500D0
:101650003C30970083161F149F141F159F1183138E
:1016600083121F179F1783169F1383121F1483164D
:101670001F109F141F119F11FF308500033087003A
:101680008312A1008A11BA288A156430DA008A11FF
:1016900059208A1587184F2B0130C700512B023073
:1016A000C7000C30D9008A1108218A158A11CC2371
:1016B0008A150230C800FA30DA008A1159208A15DA
:1016C000C80B5B2B2908CB002808CA002708C900D3
:1016D0002608C8003D08CF003C08CE003B08CD00DE
:1016E0003A08CC008A11A9268A150318792B031D04
:1016F000F62BCD014708CC008A112F218A159A308C
:10170000DC009930DB004930DA008230D9007A08F9
:10171000E0007908DF007808DE007708DD008A1134
:1017200016228A157A08CB007908CA007808C90001
:101730007708C8002908CF002808CE002708CD0068
:101740002608CC008A11A9268A150318A92B031D87
:10175000F62B0C30D9008A1108218A158A11CC2366
:101760008A15A11321088316870083128717211277
:1017700021088316870083120712A11221088316FD
:10178000870083128712A111210883168700831214
:101790008715C501C401C3017F30C2000C3097001A
:1017A000DC01DB017A30DA008830D9004508E0003E
:1017B0004408DF004308DE004208DD008A111622DB
:1017C0008A157A08CB007908CA007808C90077081A
:1017D000C8008A11E8268A157808C600C90146089B
:1017E000C8008A1156278A15A321622B0C30D90014
:1017F0008A1108218A158A11CC238A15CB01CA01C6
:10180000C9017F30C8003108CF003008CE002F0852
:10181000CD002E08CC008A11A9268A150318122C97
:10182000031DAA2CCD014708CC008A112F218A154F
:101830009A30DC009930DB004930DA008230D90080
:101840007A08E0007908DF007808DE007708DD001C
:101850008A1116228A157A08CB007908CA007808FE
:10186000C9007708C8002908CF002808CE0027083B
:10187000CD002608CC008A11A9268A150318422C0F
:10188000031DAA2C0C30D9008A1108218A158A114F
:10189000CC238A153D08A9003C08A8003B08A700F6
:1018A0003A08A6002908CB002808CA002708C90062
:1018B0002608C8002508CF002408CE002308CD0044
:1018C0002208CC008A114C218A157A08C5007908B3
:1018D000C4007808C3007708C200A111210883164C
:1018E000870083128711A1122108831687008312B3
:1018F00087122112210883168700831207160C30E5
:101900009700DC01DB017A30DA008830D900450825
:10191000E0004408DF004308DE004208DD008A11D1
:1019200016228A157A08CB007908CA007808C900FF
:101930007708C8008A11E8268A157808C600C90108
:101940004608C8008A1156278A15A3218A11CC237C
:101950008A15FE2B8A11CC238A150230C800FA3072
:10196000DA008A1159208A15C80BAF2C0C30D90027
:101970008A1108218A15CD014708CC008A112F2130
:101980008A159A30DC009930DB004930DA00823069
:10199000D9007A08E0007908DF007808DE007708CF
:1019A000DD008A1116228A157A08CB007908CA0050
:1019B0007808C9007708C8002908CF002808CE0099
:1019C0002708CD002608CC008A11A9268A150318FD
:1019D000EB2C031D532D0C30D9008A1108218A15D8
:1019E0008A11CC238A154108A9004008A8003F08A5
:1019F000A7003E08A6002908CB002808CA0027082F
:101A0000C9002608C8002508CF002408CE002308F6
:101A1000CD002208CC008A114C218A157A08C50015
:101A20007908C4007808C3007708C2002112210891
:101A30008316870083120712A111210883168700DD
:101A400083128711A112210883168700831287163B
:101A50000C309700DC01DB017A30DA008830D900E5
:101A60004508E0004408DF004308DE004208DD00CE
:101A70008A1116228A157A08CB007908CA007808DC
:101A8000C9007708C8008A11E8268A157808C600B8
:101A9000C9014608C8008A1156278A15A3218A1150
:101AA000CC238A15BB2C0C30D9008A1108218A1549
:101AB000CD014708CC008A112F218A159A30DC000D
:101AC0009930DB004930DA008230D9007A08E00032
:101AD0007908DF007808DE007708DD008A11162219
:101AE0008A152908CB002808CA002708C90026083B
:101AF000C8007A08CF007908CE007808CD007708B2
:101B0000CC008A11A9268A15031C022EA1132108D4
:101B10008316870083128713C501C401C3017F3078
:101B2000C2000C309700DC01DB017A30DA0088302B
:101B3000D9004508E0004408DF004308DE00420801
:101B4000DD008A1116228A157A08CB007908CA00AE
:101B50007808C9007708C8008A11E8268A1578082D
:101B6000C600C9014608C8008A1156278A150C30DC
:101B7000D9008A1108218A15463003178D000030DC
:101B80008F00031349210130DA000230DB008A1193
:101B9000E6208A15503003178D0000308F000313A4
:101BA00049218A11CC238A15211221088316870026
:101BB00083120716A1122108831687008312871645
:101BC000A11121088316870083128715FA30DA00E5
:101BD0008A1159208A152112210883168700831241
:101BE0000712A11221088316870083128712A11100
:101BF00021088316870083128711FA30DA008A11D0
:081C000059208A154A2B6300EC
:02400E00723FFF
:00000001FF
;PIC16F877
;CRC=1237  CREATED="02-Feb-19 18:56"
