:1000000003308A00102B00008E30F7006608F800DD
:100010006508F900FA01F808031D18287908F800A6
:10002000F9010830F702F808031D1828F701202805
:100030000310F81B1F28F90DF80DF7031828F81303
:100040000800650803199128ED0069080319912833
:10005000ED07031832287F30ED02031C91280319A5
:10006000912836288130ED07031891286D08F70094
:10007000F801F901FA016608F100F1176708F000CC
:100080006808EF001830ED00EE016F1C5F286C0867
:10009000FA07031C5128F90A031D5128F80A03190D
:1000A000EE176B08F907031C5828F80A0319EE1716
:1000B0006A08E700E7176708F8070318EE17EE0D60
:1000C000F80CF90CFA0CF10CF00CEF0C0310ED0B22
:1000D00044280130F70703189128F81B7628F10D02
:1000E000FA0DF90DF80DF70303199128F11F872870
:1000F000FA0A031D8728F90A031D8728F80A031D39
:100100008728F80CF90CFA0CF70A031991286608ED
:10011000EE006A08EE06EE1F8F28F8179528F813F0
:100120009528F701F801F901FA0108006908031997
:100130005B29F5006D0803195B29F502031CA5284E
:100140007F30F50703185B29AB288130F502031CCB
:100150005B2903195B297508F700F801F901FA0119
:10016000F4016A08F300F3176B08F2006C08F10061
:100170001930F5007008F1020318CE280130F202A0
:100180000318CE28F3020318CE28F4020318CE2851
:10019000F40AF30AF20A7008F10700296F08F20264
:1001A0000318E9280130F3020318E928F4020318C0
:1001B000E928F40AF30A6F08F2077008F107031C34
:1001C0000029F20A031D0029F30A031D0029F40A7D
:1001D00000296E088038F3020318FF280130F4026A
:1001E0000318FF28F40A6E088038F3076F08F20737
:1001F000031CDD28F30A031DDD28F40ADD287A1428
:10020000F50B03290E290310F10DF20DF30DF40D7A
:100210000310FA0DF90DF80DF60DBA28761C162903
:100220000310F80CF90CFA0CF60C1929F703031952
:100230005B29F61B42290310F10DF20DF30DF40DAD
:100240007008F10203182E290130F20203182E293A
:10025000F30203182E29F402031C51296F08F2023D
:10026000031839290130F30203183929F402031C59
:1002700051296E088038F302031842290130F40234
:10028000031C5129FA0A031D5129F90A031D51299A
:10029000F80A031D5129F70A03195B29F80CF90C18
:1002A000FA0C6A08F5006E08F506F51F5929F817CB
:1002B0005F29F8135F29F701F801F901FA01080035
:1002C00080308318EE068316A201A30183126A0808
:1002D0008316A10083126E088316A1068312690893
:1002E0000319762A8316A000F70083126D080319FC
:1002F000832A8316A0020319102A031CC229831221
:100300006E088316A600A61783126F088316A50031
:100310007008A400A3010310A60CA50CA40CA30C48
:10032000A00B8A29A11F972922149C2A2210201091
:1003300022166C3084008313B12A2212A11BAA2931
:10034000201CB529A60CA50CA40CA30CF70A0319B4
:10035000972AB529A61BB8290310A30DA40DA50D36
:10036000A60DF7030319972AAA292217362A221362
:1003700083126A088316A100A11FC029A617902A1C
:10038000A613902A83126D088316A000F70083122B
:1003900069088316A00283126A088316A600A617AE
:1003A00083126B088316A50083126C088316A400C1
:1003B000A3010310A60CA50CA40CA30CA00BD82918
:1003C000A11FE529A2149C2AA2102010A2167030A9
:1003D00084008313B12AA212A11BF829201C032A2E
:1003E000A60CA50CA40CA30CF70A0319972A032A40
:1003F000A61B062A0310A30DA40DA50DA60DF70339
:100400000319972AF829A217362AA21383126E0815
:100410008316A100A11F0E2AA617902AA613902AC0
:1004200083126E088316A600A61783126F08831620
:10043000A5007008A400A11F212AA61322159C2A3A
:100440002211A30120106C3084008313B12AA11B58
:100450004C2A83126A088316A100201C362AA60C97
:10046000A50CA40CA30CF70A0319972AA31F472A6B
:10047000A40A031D472AA50A031D472AA60A031D2D
:10048000472AA60CA50CA40CF70A0319972A221BCD
:10049000B729A21B052A6F2A8030A606A61F562A56
:1004A0009C2A83126E088316A100652A83126A08AB
:1004B0008316A100A608031D652AA508031D652A49
:1004C000A408031D652AF701902AA61B6F2A0310B2
:1004D000A30DA40DA50DA60DF70B652A972AA11F44
:1004E000732AA617902AA613902A83126D08F70084
:1004F0006E088316A60083126F088316A500700885
:10050000A400902A83126908F7006A088316A600DF
:1005100083126B088316A50083126C088316A4004F
:100520002608F8002508F9002408FA00CF2AF70168
:10053000F801F901FA01CF2AA301A409A509A60926
:10054000A309A30A031DAA2AA40A031DAA2AA50A0D
:100550000319A60A22189629A218E4292219202A8A
:10056000512A0008A407031CBB2AA50A031DBB2AA5
:10057000A60A0319201484030008A507031CC32A34
:10058000A60A0319201484030008801F803AA607D6
:1005900003182014221A9D29A21AEB29272A831254
:1005A00008006608ED006A08ED06ED1FDC2A03115D
:1005B0000310E61B03140F2B6608ED006908EE001C
:1005C0006508EE020319EA2AED1F0F2B0308013A12
:1005D00083000F2B6A08EE006608EE020319F62A64
:1005E000ED1F0F2B0308013A83000F2B6B08EE0061
:1005F0006708EE020319022BED1F0F2B0308013AC7
:1006000083000F2B6C08EE006808EE0203190E2B16
:10061000ED1F0F2B0308013A83000F2B0310080076
:1006200003081F398300C501C401C301C201C90108
:10063000C801C701C601CD01CC01CB01CA010A30F6
:10064000CF000630D0000E30D1000130D200FF3094
:10065000D30083161F149F141F159F1107309C0091
:1006600083138312A001A1014F08CE0083161F102F
:100670009F101F119F111F1383121F179F138316A3
:100680009F1783121F14D3105308831687008312F9
:1006900087105311530883168700831207110C30FB
:1006A00097000030F800043892001330831692004F
:1006B0000030F80083121F08C73978049F00A63065
:1006C000F700F70B612B00001F151F19652B1E0883
:1006D000FA0083161E088312E5001E08E6000420B7
:1006E0007A08A9007908A8007808A7007708A6006A
:1006F000E801E7012030E6008130E5002908EC0040
:100700002808EB002708EA002608E90021207A08DB
:10071000E8007908E7007808E6007708E5007A083D
:10072000EC007908EB007808EA007708E900F001AE
:10073000C030EF007F30EE008830ED0096207A0860
:10074000E8007908E7007808E6007708E5007A080D
:10075000EC007908EB007808EA007708E900F83047
:10076000F0005330EF006330EE007B30ED00962058
:100770007A08AD007908AC007808AB007708AA00C9
:100780000830F8001F08C73978049F00A630F7002A
:10079000F70BC82B00001F151F19CC2B1E08FA00E1
:1007A00083161E088312E5001E08E60004207A085E
:1007B000A9007908A8007808A7007708A6000A30E1
:1007C000E8002830E7002030E6007730E50029080F
:1007D000EC002808EB002708EA002608E9002120A1
:1007E0007A08E8007908E7007808E6007708E5006D
:1007F00083147A08EC007908EB007808EA0077089F
:10080000E900F001EF012030EE008030ED006021C2
:100810007A08E8007908E7007808E6007708E5003C
:100820007A08EC007908EB007808EA007708E9001C
:100830000230F0002B30EF000730EE007B30ED008F
:1008400096207A08B1007908B0007808AF007708E0
:10085000AE001030F8001F08C73978049F00A6309A
:10086000F700F70B312C00001F151F19352C1E083F
:10087000FA0083161E088312E5001E08E600042015
:100880007A08A9007908A8007808A7007708A600C8
:10089000E801E7012030E6008130E5002908EC009E
:1008A0002808EB002708EA002608E90021207A083A
:1008B000E8007908E7007808E6007708E5007A089C
:1008C000EC007908EB007808EA007708E900F0010D
:1008D000C030EF007F30EE008830ED0096207A08BF
:1008E000E8007908E7007808E6007708E5007A086C
:1008F000EC007908EB007808EA007708E900FA30A4
:10090000F0007E30EF002A30EE007D30ED009620C2
:100910007A08B9007908B8007808B7007708B600F7
:100920001830F8001F08C73978049F00A630F70078
:10093000F70B982C00001F151F199C2C1E08FA009D
:1009400083161E088312E5001E08E60004207A08BC
:10095000A9007908A8007808A7007708A6000A303F
:10096000E8002830E7002030E6007730E50029086D
:10097000EC002808EB002708EA002608E9002120FF
:100980007A08E8007908E7007808E6007708E500CB
:1009900083147A08EC007908EB007808EA007708FD
:1009A000E900F001EF012030EE008030ED00602121
:1009B0007A08E8007908E7007808E6007708E5009B
:1009C0007A08EC007908EB007808EA007708E9007B
:1009D0000230F0002B30EF000730EE007B30ED00EE
:1009E00096207A08BD007908BC007808BB0077081B
:1009F000BA0083143508EC003408EB003308EA0031
:100A00003208E9004D08F0004C08EF004B08EE00FA
:100A10004A08ED0060217A08D7007908D6007808E6
:100A2000D5007708D40083142D08EC002C08EB00C7
:100A30002B08EA002A08E9004508F0004408EF0006
:100A40004308EE004208ED0060217A08DB007908D7
:100A5000DA007808D9007708D80083143108EC0050
:100A60003008EB002F08EA002E08E9004908F000E2
:100A70004808EF004708EE004608ED0060217A08BC
:100A8000DF007908DE007808DD007708DC00570811
:100A9000EC005608EB005508EA005408E9005B0832
:100AA000F0005A08EF005908EE005808ED009620B3
:100AB0007A08E3007908E2007808E1007708E000AE
:100AC0005B08E8005A08E7005908E6005808E50006
:100AD000EC01EB01EA01E901D1220319962EE801AC
:100AE000E701E601E5016308EC006208EB0061083C
:100AF000EA006008E900D122031CB92D5208E4077E
:100B00003508CD003408CC003308CB003208CA00C9
:100B10002D08C5002C08C4002B08C3002A08C200F9
:100B20003108C9003008C8002F08C7002E08C600C9
:100B3000500864020318A12D5008E40064089500D1
:100B4000B82D64085102031CA92D51086402031D2D
:100B5000AE2D5108E40064089500B82D51086402D8
:100B60000318B82D640850020318B82D64089500C6
:100B7000962E6308E8006208E7006108E600600856
:100B8000E500EC01EB01EA01E901D122031C032E8F
:100B90005208E4023508CD003408CC003308CB00FD
:100BA0003208CA002D08C5002C08C4002B08C30059
:100BB0002A08C2003108C9003008C8002F08C70041
:100BC0002E08C600500864020318EB2D5008E400FC
:100BD00064089500022E64085102031CF32D51088D
:100BE0006402031DF82D5108E40064089500022EEC
:100BF000510864020318022E640850020318022EE2
:100C000064089500962EE801E701E601E5015F081A
:100C1000EC005E08EB005D08EA005C08E900D12208
:100C2000031C4D2E5208E4073508CD003408CC00D3
:100C30003308CB003208CA002D08C5002C08C400B8
:100C40002B08C3002A08C2003108C9003008C800B8
:100C50002F08C7002E08C600500864020318352E5E
:100C60005008E400640895004C2E64085102031CEF
:100C70003D2E51086402031D422E5108E400640811
:100C800095004C2E5108640203184C2E6408500243
:100C900003184C2E64089500962E5F08E8005E0845
:100CA000E7005D08E6005C08E500EC01EB01EA0105
:100CB000E901D122031C962E5208E4023508CD002A
:100CC0003408CC003308CB003208CA002D08C50018
:100CD0002C08C4002B08C3002A08C2003108C90030
:100CE0003008C8002F08C7002E08C600500864024C
:100CF00003187F2E5008E40064089500962E6408BF
:100D00005102031C872E51086402031D8C2E5108CA
:100D1000E40064089500962E510864020318962E8C
:0E0D2000640850020318962E640895006300C4
:02400E00723FFF
:00000001FF
;PIC16F877A
;CRC=1317  CREATED="17-Feb-19 19:00"
