:1000000003308A00C22B0000CD30E4322031791D4C
:100010000000C630693D6137AC29E830EB3472002E
:10002000CD30E4322031791D000141376410C830F1
:100030006D3D6100503084008313000803192D28A2
:100040000630F800F701F70B2328F80B22287B3045
:10005000F700F70B2928800B2028080083160810CA
:10006000831208108316860183124F0886008316B8
:10007000881083128814A630F700F70B3D28000083
:10008000831688108312881008000230CD00963045
:10009000D0001A20CD0B47283830CF002E200E304C
:1000A000CF002E200130CF002E203230D0001A2079
:1000B0008A110A12D12B80304D07CE00CF002E209E
:1000C0000800831608108312081483168601831211
:1000D000500886008316881083128814A630F70013
:1000E000F70B702800008316881083128810080010
:1000F0000B08CD008B13831603178C170C1400000C
:10010000000083120313CD1B8B1703170C087F39D4
:100110000319CC280313CD0003170D080313CE00D9
:1001200003170F080313CF004D08D00061204E08BD
:1001300003178D0003134F0803178F0003130B08D9
:10014000D0008B13831603178C170C1400000000CB
:1001500083120313D01B8B1703170C0D0E0D7F3961
:100160000319CC280313CD0003170D080313CE0089
:1001700003170F080313CF004D08D00061204E086D
:1001800003178D0003134F0803178F008D0A0319FF
:100190008F0A03137828031703130800C0304D0794
:1001A000CE00CF002E200800CE014D084E020318CD
:1001B000E5281C30CF002E200230CF009630D00032
:1001C0001A20CF0BDE28CE0AD52808008E30F70083
:1001D0004E08F8004D08F900FA01F808031DFA2846
:1001E0007908F800F9010830F702F808031DFA2829
:1001F000F70102290310F81B0129F90DF80DF70387
:10020000FA28F81308004D0803197329D50051087E
:1002100003197329D507031814297F30D502031C4D
:1002200073290319732918298130D50703187329F5
:100230005508F700F801F901FA014E08D900D9175D
:100240004F08D8005008D7001830D500D601571CE9
:1002500041295408FA07031C3329F90A031D3329DD
:10026000F80A0319D6175308F907031C3A29F80AA4
:100270000319D6175208CF00CF174F08F8070318F5
:10028000D617D60DF80CF90CFA0CD90CD80CD70CE3
:100290000310D50B26290130F70703187329F81B23
:1002A0005829D90DFA0DF90DF80DF7030319732923
:1002B000D91F6929FA0A031D6929F90A031D692949
:1002C000F80A031D6929F80CF90CFA0CF70A03194E
:1002D00073294E08D6005208D606D61F7129F81782
:1002E0007729F8137729F701F801F901FA010800D5
:1002F000510803193D2ADD00550803193D2ADD0286
:10030000031C87297F30DD0703183D2A8D298130A2
:10031000DD02031C3D2A03193D2A5D08F700F801A0
:10032000F901FA01DC015208DB00DB175308DA009F
:100330005408D9001930DD005808D9020318B02933
:100340000130DA020318B029DB020318B029DC02FD
:100350000318B029DC0ADB0ADA0A5808D907E229AF
:100360005708DA020318CB290130DB020318CB2926
:10037000DC020318CB29DC0ADB0A5708DA07580825
:10038000D907031CE229DA0A031DE229DB0A031D4F
:10039000E229DC0AE22956088038DB020318E12949
:1003A0000130DC020318E129DC0A56088038DB073B
:1003B0005708DA07031CBF29DB0A031DBF29DC0A23
:1003C000BF297A14DD0BE529F0290310D90DDA0DC8
:1003D000DB0DDC0D0310FA0DF90DF80DDE0D9C2977
:1003E0005E1CF8290310F80CF90CFA0CDE0CFB2942
:1003F000F70303193D2ADE1B242A0310D90DDA0D59
:10040000DB0DDC0D5808D9020318102A0130DA027E
:100410000318102ADB020318102ADC02031C332AFB
:100420005708DA0203181B2A0130DB0203181B2AC3
:10043000DC02031C332A56088038DB020318242A06
:100440000130DC02031C332AFA0A031D332AF90A9D
:10045000031D332AF80A031D332AF70A03193D2A1C
:10046000F80CF90CFA0C5208DD005608DD06DD1F09
:100470003B2AF817412AF813412AF701F801F9013C
:10048000FA01080080308318D606DB01DC0152082F
:10049000DA005608DA0651080319322BD900F700A2
:1004A000550803193B2BD9020319D72A031C952A97
:1004B0005608DF00DF175708DE005808DD00DC01B2
:1004C0000310DF0CDE0CDD0CDC0CD90B5F2ADA1F0D
:1004D0006C2A5B144F2B5B1059105B165430840050
:1004E0008313642B5B12DA1B7F2A591C8A2ADF0CC8
:1004F000DE0CDD0CDC0CF70A03194A2B8A2ADF1B01
:100500008D2A0310DC0DDD0DDE0DDF0DF703031961
:100510004A2B7F2A5B17F72A5B135208DA00DA1F8F
:10052000932ADF17432BDF13432B5508D900F7001D
:100530005108D9025208DF00DF175308DE005408C3
:10054000DD00DC010310DF0CDE0CDD0CDC0CD90B54
:10055000A12ADA1FAE2ADB144F2BDB105910DB1651
:10056000583084008313642BDB12DA1BC12A591C18
:10057000CC2ADF0CDE0CDD0CDC0CF70A03194A2B4D
:10058000CC2ADF1BCF2A0310DC0DDD0DDE0DDF0DC5
:10059000F70303194A2BC12ADB17F72ADB13560886
:1005A000DA00DA1FD52ADF17432BDF13432B560857
:1005B000DF00DF175708DE005808DD00DA1FE42AE5
:1005C000DF135B154F2B5B11DC0159105430840095
:1005D0008313642BDA1B0D2B5208DA00591CF72AFF
:1005E000DF0CDE0CDD0CDC0CF70A03194A2BDC1FD8
:1005F000082BDD0A031D082BDE0A031D082BDF0A6A
:10060000031D082BDF0CDE0CDD0CF70A03194A2B47
:100610005B1B8C2ADB1BCE2A2C2B8030DF06DF1FD6
:10062000152B4F2B5608DA00222B5208DA00DF0870
:10063000031D222BDE08031D222BDD08031D222BA8
:10064000F701432BDF1B2C2B0310DC0DDD0DDE0D22
:10065000DF0DF70B222B4A2BDA1F302BDF17432B32
:10066000DF13432B5508F7005608DF005708DE005C
:100670005808DD00432B5108F7005208DF005308EB
:10068000DE005408DD005F08F8005E08F9005D0830
:10069000FA00822BF701F801F901FA01822BDC0143
:1006A000DD09DE09DF09DC09DC0A031D5D2BDD0A3B
:1006B000031D5D2BDE0A0319DF0A5B186B2ADB18AA
:1006C000AD2A5B19E32A122B0008DD07031C6E2BF1
:1006D000DE0A031D6E2BDF0A031959148403000878
:1006E000DE07031C762BDF0A031959148403000864
:1006F000801F803ADF07031859145B1A722ADB1A2D
:10070000B42AEA2A08004E08D5005208D506D51F9B
:100710008E2B03110310CE1B0314C12B4E08D500E2
:100720005108D6004D08D60203199C2BD51FC12BAA
:100730000308013A8300C12B5208D6004E08D602A6
:100740000319A82BD51FC12B0308013A8300C12B25
:100750005308D6004F08D6020319B42BD51FC12B5E
:100760000308013A8300C12B5408D6005008D60272
:100770000319C02BD51FC12B0308013A8300C12BDD
:100780000310080003081F398300FF30CB008316D5
:100790001F149F141F159F1183138312A001A10121
:1007A000452883161F109F101F119F1183121F17BA
:1007B0009F1383169F1783121F14CB104B088316A9
:1007C0008700831287104B114B0883168700831212
:1007D00007110C3097000030F800043892003130D7
:1007E000831692008312B601B501B401B301BA01B8
:1007F000B901B801B7011930B200CC010330CD0006
:100800005B20043003178D0000308F000313782025
:10081000CD01CE20093003178D0000308F00031367
:1008200078200430CD00FA30D0001A20CD0B132CE4
:100830001430CD00D4200130CF002E203230D00033
:100840001A200330CD005B20103003178D000030DC
:100850008F00031378200230CD00CE20153003170F
:100860008D0000308F00031378200430CD00FA3063
:10087000D0001A20CD0B372C1430CD00D420CC0A58
:10088000CC080319FE2B0130CF002E203230D000CF
:100890001A200030F8001F08C73978049F00A630DE
:1008A000F700F70B512C00001F151F19552C1E08BF
:1008B000FA0083161E088312CD001E08CE00E62023
:1008C0007A08A9007908A8007808A7007708A60088
:1008D000D001CF012030CE008130CD002908D400D6
:1008E0002808D3002708D2002608D10003217A085F
:1008F000D0007908CF007808CE007708CD007A08BC
:10090000D4007908D3007808D2007708D100D80144
:10091000C030D7007F30D6008830D50078217A08E3
:10092000D0007908CF007808CE007708CD007A088B
:10093000D4007908D3007808D2007708D100683055
:10094000D800B330D7002A30D6007C30D5007821CB
:100950007A08AD007908AC007808AB007708AA00E7
:100960000830F8001F08C73978049F00A630F70048
:10097000F70BB82C00001F151F19BC2C1E08FA001D
:1009800083161E088312CD001E08CE00E6207A08CA
:10099000A9007908A8007808A7007708A6000A30FF
:1009A000D0002830CF002030CE007730CD0029088D
:1009B000D4002808D3002708D2002608D10003213C
:1009C0007A08D0007908CF007808CE007708CD00EB
:1009D00083147A08D4007908D3007808D200770805
:1009E000D100D801D7012030D6008030D500422276
:1009F0007A08D0007908CF007808CE007708CD00BB
:100A00007A08D4007908D3007808D2007708D1009A
:100A10000230D8002B30D7000730D6007B30D5000D
:100A200078217A08B1007908B0007808AF0077081B
:100A3000AE0083142D08D4002C08D3002B08D2005C
:100A40002A08D1003608D8003508D7003408D60067
:100A50003308D50042227A08BE007908BD00780824
:100A6000BC007708BB0083143108D4003008D300E1
:100A70002F08D2002E08D1003A08D8003908D70034
:100A80003808D6003708D50042227A08C200790813
:100A9000C1007808C0007708BF004208D4004108B0
:100AA000D3004008D2003F08D1003E08D8003D08DE
:100AB000D7003C08D6003B08D50078217A08C6004C
:100AC0007908C5007808C4007708C3003108D4004D
:100AD0003008D3002F08D2002E08D1002D08D800EE
:100AE0002C08D7002B08D6002A08D50078217708D3
:100AF000C7007808803AC8007908C9007A08CA0097
:100B00003E08D0003D08CF003C08CE003B08CD0099
:100B1000D401D301D201D1018323031DBF2D42088B
:100B2000D0004108CF004008CE003F08CD00D401DE
:100B3000D301D201D10183230319BE2DB20AD00102
:100B4000CF01CE01CD014208D4004108D3004008B6
:100B5000D2003F08D100832303189E2DB203420820
:100B6000D0004108CF004008CE003F08CD00D4019E
:100B7000D301D201D10183230318AE2D802D3E086D
:100B8000D0003D08CF003C08CE003B08CD00D4018A
:100B9000D301D201D101832303190A2E4608D000C4
:100BA0004508CF004408CE004308CD004A08D400D1
:100BB0004908D3004808D2004708D100832303190D
:100BC000092EB20A4A08D0004908CF004808CE00D2
:100BD0004708CD004608D4004508D3004408D20099
:100BE0004308D10083230318E12DB2034608D00047
:100BF0004508CF004408CE004308CD004A08D40081
:100C00004908D3004808D2004708D10083230318BD
:100C1000F52DBF2D2D08B6002C08B5002B08B4000B
:100C20002A08B3003108BA003008B9002F08B8000C
:0C0C30002E08B70032089500492C630024
:02400E00723FFF
:00000001FF
;PIC16F877
;CRC=D7E8  CREATED="05-Feb-19 22:24"
