:1000000002308A00812A00005A30840083130008DD
:10001000031917280630F800F701F70B0D28F80B25
:100020000C287B30F700F70B1328800B0A280800F8
:100030008E30F7005A08F8005908F900FA01F8085C
:10004000031D2C287908F800F9010830F702F80898
:10005000031D2C28F70134280310F81B3328F90D51
:10006000F80DF7032C28F813080080308318DE06FB
:10007000E301E4015A08E2005E08E20659080319A8
:100080002529E100F7005D0803192E29E102031973
:10009000CA28031C88285E08E700E7175F08E60007
:1000A0006008E500E4010310E70CE60CE50CE40C45
:1000B000E10B5228E21F5F2863144229631061108C
:1000C00063165C308400831357296312E21B722885
:1000D000611C7D28E70CE60CE50CE40CF70A03191B
:1000E0003D297D28E71B80280310E40DE50DE60D72
:1000F000E70DF70303193D2972286317EA286313F4
:100100005A08E200E21F8628E7173629E713362946
:100110005D08E100F7005908E1025A08E700E71717
:100120005B08E6005C08E500E4010310E70CE60C60
:10013000E50CE40CE10B9428E21FA128E31442290A
:10014000E3106110E3166030840083135729E31233
:10015000E21BB428611CBF28E70CE60CE50CE40C9C
:10016000F70A03193D29BF28E71BC2280310E40D35
:10017000E50DE60DE70DF70303193D29B428E31754
:10018000EA28E3135E08E200E21FC828E7173629D1
:10019000E71336295E08E700E7175F08E600600806
:1001A000E500E21FD728E713631542296311E40134
:1001B00061105C30840083135729E21B00295A0820
:1001C000E200611CEA28E70CE60CE50CE40CF70AF7
:1001D00003193D29E41FFB28E50A031DFB28E60A55
:1001E000031DFB28E70A031DFB28E70CE60CE50CC2
:1001F000F70A03193D29631B7F28E31BC1281F2928
:100200008030E706E71F082942295E08E200152929
:100210005A08E200E708031D1529E608031D152901
:10022000E508031D1529F7013629E71B1F290310CF
:10023000E40DE50DE60DE70DF70B15293D29E21F4D
:100240002329E7173629E71336295D08F7005E08EA
:10025000E7005F08E6006008E50036295908F70066
:100260005A08E7005B08E6005C08E5006708F8004C
:100270006608F9006508FA007529F701F801F90127
:10028000FA017529E401E509E609E709E409E40A48
:10029000031D5029E50A031D5029E60A0319E70A40
:1002A00063185E28E318A0286319D62805290008DA
:1002B000E507031C6129E60A031D6129E70A031902
:1002C000611484030008E607031C6929E70A03197F
:1002D000611484030008801F803AE7070318611443
:1002E000631A6528E31AA728DD28080059080319AE
:1002F0003B2AE5005D0803193B2AE502031C85291A
:100300007F30E50703183B2A8B298130E502031C67
:100310003B2A03193B2A6508F700F801F901FA01A5
:10032000E4015A08E300E3175B08E2005C08E1001F
:100330001930E5006008E1020318AE290130E2023D
:100340000318AE29E3020318AE29E4020318AE290C
:10035000E40AE30AE20A6008E107E0295F08E20232
:100360000318C9290130E3020318C929E40203185C
:10037000C929E40AE30A5F08E2076008E107031CF1
:10038000E029E20A031DE029E30A031DE029E40A4B
:10039000E0295E088038E3020318DF290130E40217
:1003A0000318DF29E40A5E088038E3075F08E207E4
:1003B000031CBD29E30A031DBD29E40ABD297A14E3
:1003C000E50BE329EE290310E10DE20DE30DE40D49
:1003D0000310FA0DF90DF80DE60D9A29661CF629A1
:1003E0000310F80CF90CFA0CE60CF929F7030319C1
:1003F0003B2AE61B222A0310E10DE20DE30DE40D7A
:100400006008E10203180E2A0130E20203180E2AE6
:10041000E30203180E2AE402031C312A5F08E202F9
:100420000318192A0130E3020318192AE402031CF5
:10043000312A5E088038E3020318222A0130E402E0
:10044000031C312AFA0A031D312AF90A031D312A35
:10045000F80A031D312AF70A03193B2AF80CF90C94
:10046000FA0C5A08E5005E08E506E51F392AF81778
:100470003F2AF8133F2AF701F801F901FA018A111E
:100480000A125D2B5A08E1005E08E106E11F4D2AC1
:1004900003110310DA1B0314802A5A08E1005D08D7
:1004A000E2005908E20203195B2AE11F802A0308CF
:1004B000013A8300802A5E08E2005A08E20203192A
:1004C000672AE11F802A0308013A8300802A5F0817
:1004D000E2005B08E2020319732AE11F802A030885
:1004E000013A8300802A6008E2005C08E2020319F6
:1004F0007F2AE11F802A0308013A8300802A031023
:10050000080003081F398300B901B801B701B6011B
:10051000BD01BC01BB01BA01C101C001BF01BE01E7
:100520000A30C3000630C4000E30C5000130C600DA
:10053000FF30C70083161F149F141F159F118313CC
:100540008312A001A1014308C20083161F109F104F
:100550001F119F1183121F179F1383169F1383125E
:100560001F14C7104708831687008312871047118E
:10057000470883168700831207110C30970000305C
:10058000F80004389200133083169200043083126E
:10059000D900FA30DA000420D90BC92A0030F8005B
:1005A0001F08C73978049F001430DA0004201F1593
:1005B0001F19D82A1E08DA01D90018207A08AD00C0
:1005C0007908AC007808AB007708AA000830F8007A
:1005D0001F08C73978049F001430DA0004201F1563
:1005E0001F19F02A1E08DA01D90018207A08B10074
:1005F0007908B0007808AF007708AE00831435089A
:10060000DC003408DB003308DA003208D900410886
:10061000E0004008DF003F08DE003E08DD00352036
:100620007A08CB007908CA007808C9007708C800A2
:1006300083142D08DC002C08DB002B08DA002A08C4
:10064000D9003908E0003808DF003708DE00360836
:10065000DD0035207A08CF007908CE007808CD007B
:100660007708CC0083143108DC003008DB002F0849
:10067000DA002E08D9003D08E0003C08DF003B0806
:10068000DE003A08DD0035207A08D3007908D20070
:100690007808D1007708D0004B08DC004A08DB005E
:1006A0004908DA004808D9004F08E0004E08DF008A
:1006B0004D08DE004C08DD0076297A08D70079085D
:1006C000D6007808D5007708D4004F08DC004E0823
:1006D000DB004D08DA004C08D900E001DF01DE0143
:1006E000DD01422203199B2CDC01DB01DA01D90177
:1006F0005708E0005608DF005508DE005408DD000A
:100700004222031CBE2B4608D8073508C100340816
:10071000C0003308BF003208BE002D08B9002C0805
:10072000B8002B08B7002A08B6003108BD00300811
:10073000BC002F08BB002E08BA004408580203185A
:10074000A62B4408D80058089500BD2B5808450230
:10075000031CAE2B45085802031DB32B4508D800D7
:1007600058089500BD2B450858020318BD2B5808A2
:1007700044020318BD2B580895009B2C5708DC0039
:100780005608DB005508DA005408D900E001DF0103
:10079000DE01DD014222031C082C4608D802350880
:1007A000C1003408C0003308BF003208BE002D0865
:1007B000B9002C08B8002B08B7002A08B600310889
:1007C000BD003008BC002F08BB002E08BA0044084A
:1007D00058020318F02B4408D80058089500072C3D
:1007E00058084502031CF82B45085802031DFD2B31
:1007F0004508D80058089500072C450858020318EA
:10080000072C580844020318072C580895009B2C05
:10081000DC01DB01DA01D9015308E0005208DF00F6
:100820005108DE005008DD004222031C522C46080D
:10083000D8073508C1003408C0003308BF003208AB
:10084000BE002D08B9002C08B8002B08B7002A08F4
:10085000B6003108BD003008BC002F08BB002E08D0
:10086000BA004408580203183A2C4408D800580823
:100870009500512C58084502031C422C450858028B
:10088000031D472C4508D80058089500512C4508F1
:1008900058020318512C580844020318512C5808C8
:1008A00095009B2C5308DC005208DB005108DA004D
:1008B0005008D900E001DF01DE01DD014222031C06
:1008C0009B2C4608D8023508C1003408C000330804
:1008D000BF003208BE002D08B9002C08B8002B0854
:1008E000B7002A08B6003108BD003008BC002F0848
:1008F000BB002E08BA00440858020318842C440890
:10090000D800580895009B2C58084502031C8C2CD5
:1009100045085802031D912C4508D8005808950039
:100920009B2C4508580203189B2C580844020318B6
:080930009B2C580895006300A0
:02400E00723FFF
:00000001FF
;PIC16F877
;CRC=BFED  CREATED="10-Feb-19 10:32"
