:1000000008308A0000280000CD30E4322031791D0C
:100010000000C630693D6137AC29E830EB3472002E
:10002000CD30E4322031791D000141376410C830F1
:100030006D3D6100D6274C2AC123451D2533202B59
:100040000000C32A52294527541D2533A020000152
:100050004927D02A5410D027D722521D0001D62775
:100060004C2AC123451DA01266105600C32A5229EE
:100070004527541DA01266104100CF2A5428552A46
:100080002028CF2B45293A00831608108312081028
:10009000831686017D0883128600831688108312DA
:1000A0008814A630F700F70B532800008316881039
:1000B00083128810080080307B07FC00FD0044207C
:1000C0000800831608108312081483168601290875
:1000D000831286008316881083128814A630F700D6
:1000E000F70B702800008316881083128810080010
:1000F0000B08FB008B13831603178C170C140000DE
:100100000000FB1F8828831203138B178316031725
:1001100083120C087F390319CA28FB000D08FC0064
:100120000F08FD007B0883160313A90083126120CA
:100130007C0803178D007D088F0003130B08FE0059
:100140008B13831603178C170C1400000000FE1F7E
:10015000AE28831203138B178316031783120C0D1B
:100160000E0D7F390319CA28FB000D08FC000F088B
:10017000FD007B0883160313A900831261207C080D
:1001800003178D007D088F008D0A03198F0A031352
:100190007828031703130800C0307B07FC00FD001C
:1001A000442008007E308400831300080319E528EA
:1001B0000630F800F701F70BDB28F80BDA287B3064
:1001C000F700F70BE128800BD8280800FC017B081A
:1001D0007C020318F7281C30FD0044200230FD008B
:1001E0009630FE00D220FD0BF028FC0AE72808001C
:1001F0008E30F7007C08F8007B08F900FA01F80857
:10020000031D0C297908F800F9010830F702F808F5
:10021000031D0C29F70114290310F81B1329F90DEC
:10022000F80DF7030C29F8130800831629080319A1
:100230008629B1002D0803198629B107031827293B
:100240007F30B102031C8629031986292B298130AE
:10025000B107031886293108F700F801F901FA01FE
:100260002A08B500B5172B08B4002C08B3001830C5
:10027000B100B201331C54293008FA07031C462987
:10028000F90A031D4629F80A0319B2172F08F907BE
:10029000031C4D29F80A0319B2172E08AB00AB173F
:1002A0002B08F8070318B217B20DF80CF90CFA0C6A
:1002B000B50CB40CB30C0310B10B39290130F7079E
:1002C00003188629F81B6B29B50DFA0DF90DF80DE9
:1002D000F70303198629B51F7C29FA0A031D7C2917
:1002E000F90A031D7C29F80A031D7C29F80CF90C76
:1002F000FA0CF70A031986292A08B2002E08B2065A
:10030000B21F8429F8178A29F8138A29F701F801FE
:10031000F901FA0183120800831620080319522AF2
:10032000AC0024080319522AAC02031C9C297F301C
:10033000AC070318522AA2298130AC02031C522AAE
:100340000319522A2C08F700F801F901FA01AB0150
:100350002108AA00AA172208A9002308A80019301A
:10036000AC002708A8020318C5290130A902031808
:10037000C529AA020318C529AB020318C529AB0A6F
:10038000AA0AA90A2708A807F7292608A902031814
:10039000E0290130AA020318E029AB020318E02982
:1003A000AB0AAA0A2608A9072708A807031CF729E9
:1003B000A90A031DF729AA0A031DF729AB0AF72981
:1003C00025088038AA020318F6290130AB02031869
:1003D000F629AB0A25088038AA072608A907031CB6
:1003E000D429AA0A031DD429AB0AD4297A14AC0B48
:1003F000FA29052A0310A80DA90DAA0DAB0D0310AB
:10040000FA0DF90DF80DAD0DB1292D1C0D2A0310B3
:10041000F80CF90CFA0CAD0C102AF7030319522A48
:10042000AD1B392A0310A80DA90DAA0DAB0D270885
:10043000A8020318252A0130A9020318252AAA02B6
:100440000318252AAB02031C482A2608A902031810
:10045000302A0130AA020318302AAB02031C482AB2
:1004600025088038AA020318392A0130AB02031C80
:10047000482AFA0A031D482AF90A031D482AF80ADD
:10048000031D482AF70A0319522AF80CF90CFA0C32
:100490002108AC002508AC06AC1F502AF817562AD4
:1004A000F813562AF701F801F901FA01831208003E
:1004B0000330FB02031C662A7B3084008313000890
:1004C0000319662A642A642A800B632A0800803094
:1004D000831C6D2A8316A50683128316AA01AB011D
:1004E0002108A9002508A906200803195B2BA800EC
:1004F000F70024080319642BA8020319002B031C1E
:10050000BE2A2508AE00AE172608AD002708AC00AD
:10051000AB010310AE0CAD0CAC0CAB0CA80B882AD5
:10052000A91F952A2A14782B2A1028102A16A330DE
:10053000840083138D2B2A12A91BA82A281CB32AF6
:10054000AE0CAD0CAC0CAB0CF70A0319732BB32A31
:10055000AE1BB62A0310AB0DAC0DAD0DAE0DF703FF
:100560000319732BA82A2A17202B2A132108A90064
:10057000A91FBC2AAE176C2BAE136C2B2408A80045
:10058000F7002008A8022108AE00AE172208AD002F
:100590002308AC00AB010310AE0CAD0CAC0CAB0CE3
:1005A000A80BCA2AA91FD72AAA14782BAA10281088
:1005B000AA16A730840083138D2BAA12A91BEA2A3E
:1005C000281CF52AAE0CAD0CAC0CAB0CF70A0319C9
:1005D000732BF52AAE1BF82A0310AB0DAC0DAD0D35
:1005E000AE0DF7030319732BEA2AAA17202BAA13BF
:1005F0002508A900A91FFE2AAE176C2BAE136C2B81
:100600002508AE00AE172608AD002708AC00A91FCC
:100610000D2BAE132A15782B2A11AB012810A3300D
:10062000840083138D2BA91B362B2108A900281CBD
:10063000202BAE0CAD0CAC0CAB0CF70A0319732BD2
:10064000AB1F312BAC0A031D312BAD0A031D312B1F
:10065000AE0A031D312BAE0CAD0CAC0CF70A03191E
:10066000732B2A1BB52AAA1BF72A552B8030AE06FE
:10067000AE1F3E2B782B2508A9004B2B2108A90083
:10068000AE08031D4B2BAD08031D4B2BAC08031DFF
:100690004B2BF7016C2BAE1B552B0310AB0DAC0D88
:1006A000AD0DAE0DF70B4B2B732BA91F592BAE17AE
:1006B0006C2BAE136C2B2408F7002508AE0026081F
:1006C000AD002708AC006C2B2008F7002108AE0015
:1006D0002208AD002308AC002E08F8002D08F90010
:1006E0002C08FA00AB2BF701F801F901FA01AB2B4A
:1006F000AB01AC09AD09AE09AB09AB0A031D862BF2
:10070000AC0A031D862BAD0A0319AE0A2A18942AD7
:10071000AA18D62A2A190C2B3B2B0008AC07031C5D
:10072000972BAD0A031D972BAE0A031928148403D7
:100730000008AD07031C9F2BAE0A0319281484037D
:100740000008801F803AAE07031828142A1A9B2A33
:10075000AA1ADD2A132B831208000B088316A000A7
:1007600083128B13831603178C170C1400000000E0
:100770000313A01FBE2B83128B1783160318F72BAE
:10078000831203170C087F3983160313A00083120A
:1007900003170D0883160313A100831203170F0814
:1007A00083160313A2002008A90083126120831678
:1007B0002108831203178D00831603132208831266
:1007C00003178F0003130B088316A30083128B13E8
:1007D000831603178C170C14000000000313A31FCB
:1007E000F42B83128B178316FB0BF72B252C83120C
:1007F00003170C0D0E0D7F3983160313A00083120F
:1008000003170D0883160313A100831203170F08A3
:1008100083160313A2002008A90083126120831607
:100820002108831203178D008316031322088312F5
:1008300003178F008D0A03198F0A0310FB0B212C5D
:10084000232C0313AD2B8316031383120800831884
:100850002C2CB13084008313F701F801F901FA015F
:100860008316B101B201B301B40130082F042E0484
:100870002D0403196B2C2030B5000310A90DAA0D0F
:10088000AB0DAC0DB10DB20DB30DB40D300834028B
:10089000031D542C2F083302031D542C2E08320242
:1008A000031D542C2D083102031C652C2D08B102A8
:1008B0002E08031C2E0FB2022F08031C2F0FB302A9
:1008C0003008031C300FB4020314F70DF80DF90DB6
:1008D000FA0DB50B3D2C31088000840A32088000E7
:1008E000840A33088000840A3408800083120800D8
:1008F00004088316A1002008A30003199A2C7E087F
:10090000AC007D08AB007C08AA007B08A900B00100
:10091000AF012030AE008230AD00831215217A087D
:10092000FE007908FD007808FC007708FB008316BC
:10093000A30B7F2C7E08AC007D08AB007C08AA00CE
:100940007B08A9002908B63CA900FA012A08AD00D5
:10095000AA170310AA0CAB0CAC0CFA0CF90CF80C8F
:10096000F70CA90BA92CAD1FC02CF709F809F90940
:10097000FA09F70A0319F80A0319F90A0319FA0A16
:100980007A08FE007908FD007808FC007708FB0073
:10099000FE1FD72CA103A116FB09FC09FD09FE09C6
:1009A000FB0A0319FC0A0319FD0A0319FE0A3B306E
:1009B000A8009A30A700CA30A600A5010A30A300FB
:1009C00020080319A10A83147B30840083137E0856
:1009D000AC007D08AB007C08AA007B08A9002808B1
:1009E000B0002708AF002608AE002508AD0083122E
:1009F00027247808F708031D142D8316200A2302E4
:100A0000031D042D8312142D21080319172D0F39EE
:100A1000230203190D2D03184F2DA11B4F2D211B50
:100A2000172D2030492D831220308316A105A11ED9
:100A3000272DA1122008031DA1037708A1002D3046
:100A4000A9008312612083162108F700A101200864
:100A50002302031D372D7708A1002E30A900831231
:100A6000612083162108F7002030A10500303030C6
:100A7000A11E492DA1122008031DA1037708A10082
:100A80002D30A9008312612083162108F700A101EF
:100A90003030F7077708A90083126120831683108E
:100AA0002808AC002708AB002608AA002508A900E2
:100AB000B001AF01AE010A30AD00831227247A08DD
:100AC0008316A8007908A7007808A6007708A50073
:100AD000A30BE32C831208007C088316A4002108D2
:100AE000A406A41F782D03110310FC1B0314AB2DC7
:100AF0007C08A4002008A5007B08A5020319862D08
:100B0000A41FAB2D0308013A8300AB2D2108A500DB
:100B10007C08A5020319922DA41FAB2D0308013AEE
:100B20008300AB2D2208A5007D08A50203199E2D88
:100B3000A41FAB2D0308013A8300AB2D2308A500A9
:100B40007E08A5020319AA2DA41FAB2D0308013AA4
:0A0B50008300AB2D03108312080090
:1010000003081F398300D501D401D301D201D901CE
:10101000D801D701D601DD01DC01DB01DA010A309C
:10102000DF000630E0000E30E1000130E200FF306A
:10103000E30083161F149F141F159F1107309C0097
:1010400083138312A001A1015F08DE0083161F1025
:101050009F101F119F111F1383121F179F138316B9
:101060009F1783121F14E3106308831687008312EF
:1010700087106311630883168700831207110C30F1
:1010800097000030F8000438920013308316920065
:101090008312E4010330FB008A115B208A150430BF
:1010A00003178D0000308F008A11031378208A15F2
:1010B000FB018A11CC208A15093003178D000030FE
:1010C0008F008A11031378208A150430FB00FA3050
:1010D000FE008A11D2208A15FB0B67281430FB0012
:1010E0008A11E6208A150130FD008A1144208A15F4
:1010F0003230FE008A11D2208A150330FB008A119B
:101100005B208A15103003178D0000308F008A1184
:10111000031378208A150230FB008A11CC208A152F
:10112000153003178D0000308F008A1103137820CB
:101130008A150430FB00FA30FE008A11D2208A158D
:10114000FB0B9B281430FB008A11E6208A15E40A69
:10115000E40803194A280130FD008A1144208A1549
:101160003230FE008A11D2208A150030F8001F08A4
:10117000C73978049F00A630F700F70BBD280000A0
:101180001F151F19C1281E08FA0083161E08FB0030
:101190007A08FC008A118312F8208A157A08A900BF
:1011A0007908A8007808A7007708A6008316AC0184
:1011B000AB012030AA008130A900831229088316D0
:1011C000B000831228088316AF0083122708831605
:1011D000AE00831226088316AD008A1183121521F2
:1011E0008A157A08FE007908FD007808FC00770867
:1011F000FB007E088316A3007D08A2007C08A100E6
:101200007B08A000A701C030A6007F30A500883071
:10121000A4008A1183128C218A157A08FE007908AD
:10122000FD007808FC007708FB007E088316A30009
:101230007D08A2007C08A1007B08A000F830A70070
:101240005330A6006330A5007B30A4008A118312BE
:101250008C218A157A08B1007908B0007808AF00AF
:101260007708AE00C830FB008A1158228A151F1576
:101270001F1938291E08FA0083161E08FB007A0879
:10128000FC008A118312F8208A157A08AD007908CB
:10129000AC007808AB007708AA008316AC01AB015C
:1012A0002030AA008130A900831229088316B000DB
:1012B000831228088316AF00831227088316AE0016
:1012C000831226088316AD008A11831215218A1510
:1012D0007A08FE007908FD007808FC007708FB001A
:1012E0007E088316A3007D08A2007C08A1007B086D
:1012F000A000A701C030A6007F30A5008830A40060
:101300008A1183128C218A157A08FE007908FD0063
:101310007808FC007708FB007E088316A3007D0890
:10132000A2007C08A1007B08A000F830A700533081
:10133000A6006330A5007B30A4008A1183128C21A3
:101340008A157A08B5007908B4007808B3007708E0
:10135000B2000830F8001F08C73978049F00A63093
:10136000F700F70BB12900001F151F19B5291E083A
:10137000FA0083161E08FB007A08FC008A1183120B
:10138000F8208A157A08A9007908A8007808A7002B
:101390007708A6000A308316AC002830AB00203056
:1013A000AA007730A900831229088316B00083129F
:1013B00028088316AF00831227088316AE00831215
:1013C00026088316AD008A11831215218A157A0822
:1013D000FE007908FD007808FC007708FB00831404
:1013E0007E088316A3007D08A2007C08A1007B086C
:1013F000A000A701A6012030A5008030A4008A111A
:10140000831267228A157A08FE007908FD007808A1
:10141000FC007708FB007E088316A3007D08A2006D
:101420007C08A1007B08A0000230A7002B30A6009A
:101430000730A5007B30A4008A1183128C218A1505
:101440007A08B9007908B8007808B7007708B600BC
:10145000C830FB008A1158228A151F151F192E2A21
:101460001E08FA0083161E08FB007A08FC008A1189
:101470008312F8208A157A08AD007908AC00780844
:10148000AB007708AA000A308316AC002830AB0006
:101490002030AA007730A900831229088316B000F3
:1014A000831228088316AF00831227088316AE0024
:1014B000831226088316AD008A11831215218A151E
:1014C0007A08FE007908FD007808FC007708FB0028
:1014D00083147E088316A3007D08A2007C08A10067
:1014E0007B08A000A701A6012030A5008030A40041
:1014F0008A11831267228A157A08FE007908FD0096
:101500007808FC007708FB007E088316A3007D089E
:10151000A2007C08A1007B08A0000230A7002B30AD
:10152000A6000730A5007B30A4008A1183128C210D
:101530008A157A08BD007908BC007808BB007708D6
:10154000BA001030F8001F08C73978049F00A63091
:10155000F700F70BA92A00001F151F19AD2A1E0856
:10156000FA0083161E08FB007A08FC008A11831219
:10157000F8208A157A08A9007908A8007808A70039
:101580007708A6008316AC01AB012030AA00813099
:10159000A900831229088316B00083122808831635
:1015A000AF00831227088316AE0083122608831625
:1015B000AD008A11831215218A157A08FE00790878
:1015C000FD007808FC007708FB007E088316A30066
:1015D0007D08A2007C08A1007B08A000A701C03004
:1015E000A6007F30A5008830A4008A1183128C21C8
:1015F0008A157A08FE007908FD007808FC00770853
:10160000FB007E088316A3007D08A2007C08A100D1
:101610007B08A000FA30A7007E30A6002A30A50083
:101620007D30A4008A1183128C218A157A08C900A2
:101630007908C8007808C7007708C6001830F80095
:101640001F08C73978049F00A630F700F70B262B38
:1016500000001F151F192A2B1E08FA0083161E08EA
:10166000FB007A08FC008A118312F8208A157A0898
:10167000A9007908A8007808A7007708A6000A3012
:101680008316AC002830AB002030AA007730A900C8
:10169000831229088316B000831228088316AF002E
:1016A000831227088316AE00831226088316AD0026
:1016B0008A11831215218A157A08FE007908FD0027
:1016C0007808FC007708FB0083147E088316A300CB
:1016D0007D08A2007C08A1007B08A000A701A6014C
:1016E0002030A5008030A4008A11831267228A1559
:1016F0007A08FE007908FD007808FC007708FB00F6
:101700007E088316A3007D08A2007C08A1007B0848
:10171000A0000230A7002B30A6000730A5007B30C8
:10172000A4008A1183128C218A157A08CD007908C9
:10173000CC007808CB007708CA00FB018A115B2037
:101740008A151A3003178D0000308F0003100830FF
:10175000FB008A110313AD238A15893084003108F8
:10176000FE003008FD002F08FC002E08FB000230B0
:101770008316A0008A11831278248A1520308316DC
:10178000A9008A11831261208A1556308316A90098
:101790008A11831261208A150430FB00FA30FE00A2
:1017A0008A11D2208A15FB0BCE2B1430FB008A1134
:1017B000E6208A150430FB00FA30FE008A11D220A0
:1017C0008A15FB0BDC2B0130FD008A1144208A15A1
:1017D0003230FE008A11D2208A15FB018A115B206B
:1017E0008A15213003178D0000308F000310083058
:1017F000FB008A110313AD238A1589308400390850
:10180000FE003808FD003708FC003608FB000230F7
:101810008316A0008A11831278248A15203083163B
:10182000A9008A11831261208A1541308316A9000C
:101830008A11831261208A150430FB00FA30FE0001
:101840008A11D2208A15FB0B1E2C1430FB008A1142
:10185000E6208A150130FD008A1144208A153230B5
:10186000FE008A11D2208A1531088316AC0083123B
:1018700030088316AB0083122F088316AA00831248
:101880002E088316A900831239088316B00083122C
:1018900038088316AF00831237088316AE00831210
:1018A00036088316AD008A11831215218A157A082D
:1018B000C1007908C0007808BF007708BE0035086D
:1018C0008316AC00831234088316AB0083123308EE
:1018D0008316AA00831232088316A90083123D08DA
:1018E0008316B00083123C088316AF0083123B08B6
:1018F0008316AE0083123A088316AD008A11831254
:1019000015218A157A08C5007908C4007808C30033
:101910007708C200FB018A115B208A152830031763
:101920008D0000308F008A11031378208A15033050
:10193000FB008A11CC208A15893084004108FE0002
:101940004008FD003F08FC003E08FB000230831603
:10195000A0008A11831278248A1520308316A900EA
:101960008A11831261208A1557308316A9008A11C3
:10197000831261208A150430FB00FA30FE008A11C0
:10198000D2208A15FB0BBD2C1430FB008A11E620F7
:101990008A150130FD008A1144208A153230FE007C
:1019A0008A11D2208A15FB018A115B208A152F30FB
:1019B00003178D0000308F0003100930FB008A11DF
:1019C0000313AD238A15893084004908FE004808B6
:1019D000FD004708FC004608FB0002308316A0000B
:1019E0008A11831278248A1520308316A9008A115F
:1019F000831261208A1556308316A9008A1183123A
:101A000061208A150430FB00FA30FE008A11D220D2
:101A10008A15FB0B042D1430FB008A11E6208A1571
:101A20000130FD008A1144208A153230FE008A11EF
:101A3000D2208A15FB018A115B208A1536300317E4
:101A40008D0000308F0003100930FB008A11031352
:101A5000AD238A15893084004D08FE004C08FD0036
:101A60004B08FC004A08FB0002308316A0008A11D4
:101A7000831278248A1520308316A9008A118312D4
:101A800061208A1541308316A9008A1183126120D2
:101A90008A150430FB00FA30FE008A11D2208A1524
:101AA000FB0B4B2D1430FB008A11E6208A15013008
:101AB000FD008A1144208A153230FE008A11D2209E
:101AC0008A1549088316AC00831248088316AB00B8
:101AD000831247088316AA00831246088316A900BA
:101AE00083124D088316B00083124C088316AF0092
:101AF00083124B088316AE0083124A088316AD008A
:101B00008A11831215218A157A08D1007908D0002C
:101B10007808CF007708CE00FB018A115B208A1578
:101B20003D3003178D0000308F008A110313782099
:101B30008A150330FB008A11CC208A158930840075
:101B40005108FE005008FD004F08FC004E08FB0045
:101B500002308316A0008A11831278248A1520305F
:101B60008316A9008A11831261208A1557308316C3
:101B7000A9008A11831261208A150430FB00FA3013
:101B8000FE008A11D2208A15FB0BBF2D1430FB00FA
:101B90008A11E6208A150130FD008A1144208A1539
:101BA0003230FE008A11D2208A1583144108831630
:101BB000A300831240088316A20083123F088316F5
:101BC000A10083123E088316A00083125D088316CD
:101BD000A70083125C088316A60083125B08831695
:101BE000A50083125A088316A4008A118312672263
:101BF0008A157A08E8007908E7007808E60077088F
:101C0000E500831431088316A3008312300883167D
:101C1000A20083122F088316A10083122E088316B8
:101C2000A000831255088316A70083125408831658
:101C3000A600831253088316A50083125208831648
:101C4000A4008A11831267228A157A08EC007908A9
:101C5000EB007808EA007708E90083143908831656
:101C6000A300831238088316A20083123708831654
:101C7000A100831236088316A00083125908831628
:101C8000A700831258088316A600831257088316EC
:101C9000A500831256088316A4008A1183126722B6
:101CA0008A157A08F0007908EF007808EE007708C6
:101CB000ED0068088316A300831267088316A2004C
:101CC000831266088316A100831265088316A0009C
:101CD00083126C088316A70083126B088316A60074
:101CE00083126A088316A500831269088316A4006C
:101CF0008A1183128C218A157A08F4007908F3007E
:101D00007808F2007708F1006C08FE006B08FD000F
:101D10006A08FC006908FB008316A301A201A10167
:101D2000A0018A1183126C258A150319D42FFE0194
:101D3000FD01FC01FB0174088316A3007308A200D7
:101D40007208A1007108A0008A1183126C258A15FF
:101D5000031CE52E6208F5074508DD004408DC0099
:101D60004308DB004208DA003508D5003408D40007
:101D70003308D3003208D2003D08D9003C08D8000F
:101D80003B08D7003A08D600600875020318CD2E2C
:101D90006008F50075089500E42E75086102031CC3
:101DA000D52E61087502031DDA2E6108F50075084D
:101DB0009500E42E610875020318E42E7508600290
:101DC0000318E42E75089500D42F7408FE007308DC
:101DD000FD007208FC007108FB008316A301A2013C
:101DE000A101A0018A1183126C258A15031C332FCF
:101DF0006208F5024508DD004408DC004308DB000A
:101E00004208DA003508D5003408D4003308D3007E
:101E10003208D2003D08D9003C08D8003B08D70062
:101E20003A08D6006008750203181B2F6008F500F9
:101E300075089500322F75086102031C232F610875
:101E40007502031D282F6108F50075089500322FD3
:101E5000610875020318322F750860020318322FCB
:101E600075089500D42FFE01FD01FC01FB017008EF
:101E70008316A30083126F088316A20083126E08D4
:101E80008316A10083126D088316A0008A118312A5
:101E90006C258A15031C872F6208F5074508DD00AD
:101EA0004408DC004308DB004208DA003508D500AE
:101EB0003408D4003308D3003208D2003D08D900DA
:101EC0003C08D8003B08D7003A08D60060087502E5
:101ED00003186F2F6008F50075089500862F7508A8
:101EE0006102031C772F61087502031D7C2F6108B6
:101EF000F50075089500862F610875020318862F76
:101F0000750860020318862F75089500D42F700895
:101F1000FE006F08FD006E08FC006D08FB008316D4
:101F2000A301A201A101A0018A1183126C258A15C7
:101F3000031CD42F6208F5024508DD004408DC00CC
:101F40004308DB004208DA003508D5003408D40025
:101F50003308D3003208D2003D08D9003C08D8002D
:101F60003B08D7003A08D600600875020318BD2F59
:101F70006008F50075089500D42F75086102031CF0
:101F8000C52F61087502031DCA2F6108F500750889
:101F90009500D42F610875020318D42F75086002CC
:0C1FA0000318D42F75089500B5286300C5
:02400E00723FFF
:00000001FF
;PIC16F877A
;CRC=C5EB  CREATED="27-Feb-19 10:02"
