:1000000008308A0000280000CD30E4322031791D0C
:100010000000C630693D6137AC29E830EB3472002E
:10002000CD30E4322031791D000141376410C830F1
:100030006D3D6100D6274C2AC123451D2533202B59
:100040000000C32A52294527541D2533A020000152
:100050004927D02A5410D027D722521D0001D62775
:100060004C2AC123451DA01266105600C32A5229EE
:100070004527541DA01266104100CF2A5428552A46
:100080002028CF2B45293A00CC2447245410492757
:10009000D422CE29492A591D000125332026552C6A
:1000A0000001D4224D283A102533A02100006630EB
:1000B00084008313000803196A280630F800F7014A
:1000C000F70B6028F80B5F287B30F700F70B6628EA
:1000D000800B5D2808008316081083120810831611
:1000E000860183126508860083168810831288149F
:1000F000A630F700F70B7A280000831688108312C9
:10010000881008000230E3009630E6005720E30B29
:1001100084283830E5006B200E30E5006B2001307C
:10012000E5006B203230E60057208A150A120E28AF
:1001300080306307E400E5006B2008008316081098
:1001400083120814831686017008831286008316B2
:10015000881083128814A630F700F70BAD28000032
:10016000831688108312881008000B08E3008B1395
:10017000831603178C170C1400000000831203135E
:10018000E31B8B1703170C087F3903190929031385
:10019000E30003170D080313E40003170F0803130C
:1001A000E5006308F0009E20640803178D00031328
:1001B000650803178F0003130B08E6008B138316E3
:1001C00003178C170C140000000083120313E61BA6
:1001D0008B1703170C0D0E0D7F3903190929031313
:1001E000E30003170D080313E40003170F080313BC
:1001F000E5006308F0009E20640803178D000313D8
:10020000650803178F008D0A03198F0A0313B52899
:10021000031703130800C0306307E400E5006B20F8
:100220000800E40163086402031822291C30E50079
:100230006B200230E5009630E6005720E50B1B29C5
:10024000E40A122908008E30F7006408F8006308F9
:10025000F900FA01F808031D37297908F800F901B7
:100260000830F702F808031D3729F7013F2903106A
:10027000F81B3E29F90DF80DF7033729F81308008C
:1002800070080319BF298316A0007B08031D4A29A3
:100290008312BF29A007031858297F30A002031832
:1002A00053298312BF29031D57298312BF295E29B1
:1002B0008130A007031C5E298312BF292008F700A4
:1002C000F801F901FA017108A400A4177208A3004B
:1002D0007308A2001830A000A101221C87297E0803
:1002E000FA07031C7929F90A031D7929F80A031969
:1002F000A1177D08F907031C8029F80A0319A11723
:100300007C08F200F2177208F8070318A117A10D74
:10031000F80CF90CFA0CA40CA30CA20C0310A00B03
:100320006C290130F707031C97298312BF29F81B9A
:10033000A129A40DFA0DF90DF80DF70BA1298312CF
:10034000BF29A41FB429FA0A031DB429F90A031D01
:10035000B429F80A031DB429F80CF90CFA0CF70AB1
:10036000031DB4298312BF297108A1007C08A106CE
:10037000A11FBC29F817C429F813C4298312F70157
:10038000F801F901FA0183168312080067080319BE
:100390008B2AF3006B0803198B2AF302031CD5295F
:1003A0007F30F30703188B2ADB298130F302031C0B
:1003B0008B2A03198B2A7308F700F801F901FA0157
:1003C000F2016808F100F1176908F0006A08EF000F
:1003D0001930F3006E08EF020318FE290130F00215
:1003E0000318FE29F1020318FE29F2020318FE2960
:1003F000F20AF10AF00A6E08EF07302A6D08F002DF
:100400000318192A0130F1020318192AF2020318FD
:10041000192AF20AF10A6D08F0076E08EF07031CAB
:10042000302AF00A031D302AF10A031D302AF20A8D
:10043000302A6C088038F10203182F2A0130F202AA
:1004400003182F2AF20A6C088038F1076D08F007AC
:10045000031C0D2AF10A031D0D2AF20A0D2A7A1433
:10046000F30B332A3E2A0310EF0DF00DF10DF20DC0
:100470000310FA0DF90DF80DF40DEA29741C462A43
:100480000310F80CF90CFA0CF40C492AF7030319C1
:100490008B2AF41B722A0310EF0DF00DF10DF20DF3
:1004A0006E08EF0203185E2A0130F00203185E2A7C
:1004B000F10203185E2AF202031C812A6D08F00281
:1004C0000318692A0130F1020318692AF202031C99
:1004D000812A6C088038F1020318722A0130F20276
:1004E000031C812AFA0A031D812AF90A031D812AA5
:1004F000F80A031D812AF70A03198B2AF80CF90C54
:10050000FA0C6808F3006C08F306F31F892AF81741
:100510008F2AF8138F2AF701F801F901FA01080070
:1005200080308318EC06F101F2016808F0006C08D5
:10053000F00667080319802BEF00F7006B0803191A
:10054000892BEF020319252B031CE32A6C08F50005
:10055000F5176D08F4006E08F300F2010310F50CB6
:10056000F40CF30CF20CEF0BAD2AF01FBA2A711445
:100570009D2B71106F1071166A3084008313B22B9B
:100580007112F01BCD2A6F1CD82AF50CF40CF30C59
:10059000F20CF70A0319982BD82AF51BDB2A031053
:1005A000F20DF30DF40DF50DF7030319982BCD2A79
:1005B0007117452B71136808F000F01FE12AF51739
:1005C000912BF513912B6B08EF00F7006708EF02F2
:1005D0006808F500F5176908F4006A08F300F201ED
:1005E0000310F50CF40CF30CF20CEF0BEF2AF01FD8
:1005F000FC2AF1149D2BF1106F10F1166E3084005F
:100600008313B22BF112F01B0F2B6F1C1A2BF50C5E
:10061000F40CF30CF20CF70A0319982B1A2BF51BA8
:100620001D2B0310F20DF30DF40DF50DF703031957
:10063000982B0F2BF117452BF1136C08F000F01FCE
:10064000232BF517912BF513912B6C08F500F5175B
:100650006D08F4006E08F300F01F322BF5137115CE
:100660009D2B7111F2016F106A3084008313B22B3D
:10067000F01B5B2B6808F0006F1C452BF50CF40C8D
:10068000F30CF20CF70A0319982BF21F562BF30AFE
:10069000031D562BF40A031D562BF50A031D562B7A
:1006A000F50CF40CF30CF70A0319982B711BDA2ADA
:1006B000F11B1C2B7A2B8030F506F51F632B9D2B2D
:1006C0006C08F000702B6808F000F508031D702B13
:1006D000F408031D702BF308031D702BF701912BF9
:1006E000F51B7A2B0310F20DF30DF40DF50DF70B3E
:1006F000702B982BF01F7E2BF517912BF513912B58
:100700006B08F7006C08F5006D08F4006E08F30044
:10071000912B6708F7006808F5006908F4006A087B
:10072000F3007508F8007408F9007308FA00D02B7C
:10073000F701F801F901FA01D02BF201F309F409EC
:10074000F509F209F20A031DAB2BF30A031DAB2BCB
:10075000F40A0319F50A7118B92AF118FB2A71195C
:10076000312B602B0008F307031CBC2BF40A031D7C
:10077000BC2BF50A03196F1484030008F407031C4B
:10078000C42BF50A03196F1484030008801F803AF4
:10079000F50703186F14711AC02AF11A022B382BAF
:1007A00008008E30F7006308F7026408F900650856
:1007B000F800F917F7080319E82B0310F908031DCF
:1007C000E42BF8080319E82BF90CF80CF70BDD2BD8
:1007D000E41FEF2BF809F909F80A0319F90A8A1539
:1007E0000A12512A00308316860083126408023CE4
:1007F000031C022C83160811831208156430E600CE
:100800005720062C83160811831208118A150A1224
:10081000572A0B08E4008B13831603178C170C144C
:100820000000000083120313E41B8B170318402CF5
:1008300003170C087F390313E40003170D08031393
:10084000E50003170F080313E6006408F0009E207C
:10085000650803178D000313660803178F00031341
:100860000B08E7008B13831603178C170C1400007A
:10087000000083120313E71B8B17E30B402C5F2C44
:1008800003170C0D0E0D7F390313E40003170D0839
:100890000313E50003170F080313E6006408F000D4
:1008A0009E20650803178D000313660803178F0049
:1008B0008D0A03198F0A03100313E30B092C080098
:1008C0008318652CA03084008313F701F801F90127
:1008D000FA018316A001A101A201A3017E087D04F3
:1008E0007C047B040319A42C2030A4000310F00D19
:1008F000F10DF20DF30DA00DA10DA20DA30D7E08BB
:100900002302031D8D2C7D082202031D8D2C7C08E3
:100910002102031D8D2C7B082002031C9E2C7B08CA
:10092000A0027C08031C7C0FA1027D08031C7D0F24
:10093000A2027E08031C7E0FA3020314F70DF80D1C
:10094000F90DFA0DA40B762C20088000840A2108EA
:100950008000840A22088000840A23088000831211
:1009600008000408E8006708EA000319D02C6608AC
:10097000F3006508F2006408F1006308F000FE016E
:10098000FD012030FC008230FB0040217A08E600A7
:100990007908E5007808E4007708E300EA0BB72C53
:1009A0006608F3006508F2006408F1006308F000CF
:1009B0007008B63CF000FA017108F400F11703105A
:1009C000F10CF20CF30CFA0CF90CF80CF70CF00B20
:1009D000DF2CF41FF62CF709F809F909FA09F70AD0
:1009E0000319F80A0319F90A0319FA0A7A08E60042
:1009F0007908E5007808E4007708E300E61F0D2D8C
:100A0000E803E816E309E409E509E609E30A03193E
:100A1000E40A0319E50A0319E60A3B30EF009A30AD
:100A2000EE00CA30ED00EC010A30EA006708031955
:100A3000E80A83146330840083136608F3006508B2
:100A4000F2006408F1006308F0006F08FE006E0811
:100A5000FD006D08FC006C08FB0060247808F708B6
:100A6000031D452D670A6A020319452D68080319FD
:100A7000472D0F396A0203193F2D0318772DE81B04
:100A8000772D681B472D2030732D2030E805E81E98
:100A9000552DE8126708031DE8037708E8002D309C
:100AA000F0009E206808F700E80167086A02031D4D
:100AB000632D7708E8002E30F0009E206808F700CC
:100AC0002030E80500303030E81E732DE81267084A
:100AD000031DE8037708E8002D30F0009E20680829
:100AE000F700E8013030F7077708F0009E20831008
:100AF0006F08F3006E08F2006D08F1006C08F0005A
:100B0000FE01FD01FC010A30FB0060247A08EF00C1
:100B10007908EE007808ED007708EC00EA0B192D53
:020B20000800CB
:1010000003081F39830083161F149F141F159F1197
:1010100083138312A001A1018A1182288A158316E5
:101020001F109F101F119F1183121F139F138316F0
:101030009F1783121F14E2010330E3008A119820E6
:101040008A15043003178D0000308F008A110313B6
:10105000B5208A15E3018A110B218A15093003177F
:101060008D0000308F008A110313B5208A150430DB
:10107000E300FA30E6008A1157208A15E30B39287D
:101080001430E3008A1111218A150130E5008A111C
:101090006B208A153230E6008A1157208A150330FA
:1010A000E3008A1198208A15103003178D00003054
:1010B0008F008A110313B5208A150230E3008A11CC
:1010C0000B218A15153003178D0000308F008A110F
:1010D0000313B5208A150430E300FA30E6008A11C4
:1010E00057208A15E30B6D281430E3008A11112173
:1010F0008A15E20AE20803191C280130E5008A116A
:101100006B208A153230E6008A1157208A1500308C
:10111000F8001F08C73978049F00A630F700F70BC6
:101120008F2800001F151F1993281E08FA00831628
:101130001E088312E3001E08E4008A1123218A1589
:101140007A08A9007908A8007808A7007708A600FF
:10115000F301F2012030F1008130F0002908FE0097
:101160002808FD002708FC002608FB008A11402102
:101170008A157A08E6007908E5007808E40077081F
:10118000E3006608EA006508E9006408E80063080F
:10119000E700EE01C030ED007F30EC008830EB005E
:1011A0008A11C6218A157A08E6007908E5007808D0
:1011B000E4007708E3006608EA006508E9006408CF
:1011C000E8006308E700AE30EE004730ED00613024
:1011D000EC007B30EB008A11C6218A157A08C50025
:1011E0007908C4007808C3007708C2000830F80006
:1011F0001F08C73978049F00A630F700F70BFE28B8
:1012000000001F151F1902291E08FA0083161E0868
:101210008312E3001E08E4008A1123218A157A084C
:10122000A9007908A8007808A7007708A6000A3066
:10123000F3002830F2002030F1007730F000290868
:10124000FE002808FD002708FC002608FB008A1184
:1012500040218A157A08E6007908E5007808E4005C
:101260007708E30083146608EA006508E90064086B
:10127000E8006308E700EE01ED012030EC0080306B
:10128000EB008A1190228A157A08E6007908E500B9
:101290007808E4007708E3006608EA006508E900DA
:1012A0006408E8006308E7000A30EE00D730ED007C
:1012B0002330EC007C30EB008A11C6218A157A08B5
:1012C000CD007908CC007808CB007708CA00103030
:1012D000F8001F08C73978049F00A630F700F70B05
:1012E0006F2900001F151F1973291E08FA008316A5
:1012F0001E088312E3001E08E4008A1123218A15C8
:101300007A08A9007908A8007808A7007708A6003D
:10131000F301F2012030F1008130F0002908FE00D5
:101320002808FD002708FC002608FB008A11402140
:101330008A157A08E6007908E5007808E40077085D
:10134000E3006608EA006508E9006408E80063084D
:10135000E700EE01C030ED007F30EC008830EB009C
:101360008A11C6218A157A08E6007908E50078080E
:10137000E4007708E3006608EA006508E90064080D
:10138000E8006308E700C330EE00F530ED002830D8
:10139000EC007D30EB008A11C6218A157A08C9005D
:1013A0007908C8007808C7007708C6001830F80028
:1013B0001F08C73978049F00A630F700F70BDE2915
:1013C00000001F151F19E2291E08FA0083161E08C7
:1013D0008312E3001E08E4008A1123218A157A088B
:1013E000A9007908A8007808A7007708A6000A30A5
:1013F000F3002830F2002030F1007730F0002908A7
:10140000FE002808FD002708FC002608FB008A11C2
:1014100040218A157A08E6007908E5007808E4009A
:101420007708E30083146608EA006508E9006408A9
:10143000E8006308E700EE01ED012030EC008030A9
:10144000EB008A1190228A157A08E6007908E500F7
:101450007808E4007708E3006608EA006508E90018
:101460006408E8006308E7000230EE002B30ED006E
:101470000730EC007B30EB008A11C6218A157A0810
:10148000D1007908D0007808CF007708CE004D0849
:10149000E6004C08E5004B08E4004A08E3008A1126
:1014A000D12B8A157808E300E4008A11F22B8A1503
:1014B000E3018A1198208A151A3003178D00003035
:1014C0008F00031008300313E3008A1109248A15E2
:1014D000893084004508E6004408E5004308E4003C
:1014E0004208E3000230E7008A11B1248A15203057
:1014F000F0008A119E208A155630F0008A119E2035
:101500008A150430E300FA30E6008A1157208A1564
:10151000E30B832A1430E3008A1111218A15043069
:10152000E300FA30E6008A1157208A15E30B912A6E
:101530000130E5008A116B208A153230E6008A11ED
:1015400057208A15E3018A1198208A152130031744
:101550008D0000308F00031008300313E3008A1160
:1015600009248A15893084004D08E6004C08E500FE
:101570004B08E4004A08E3000230E7008A11B12476
:101580008A152030F0008A119E208A154130F00023
:101590008A119E208A150430E300FA30E6008A1191
:1015A00057208A15E30BCD2A1430E3008A1111214C
:1015B0008A150130E5008A116B208A153230E60069
:1015C0008A1157208A154508F3004408F2004308A1
:1015D000F1004208F0004D08FE004C08FD004B08E9
:1015E000FC004A08FB008A1140218A157A08DD00B8
:1015F0007908DC007808DB007708DA00E3018A115B
:1016000098208A15283003178D0000308F008A112A
:101610000313B5208A150330E3008A110B218A15C4
:10162000893084005D08E6005C08E5005B08E400A2
:101630005A08E3000230E7008A11B1248A152030ED
:10164000F0008A119E208A155730F0008A119E20E2
:101650008A150430E300FA30E6008A1157208A1513
:10166000E30B2B2B1430E3008A1111218A15013072
:10167000E5008A116B208A153230E6008A11572066
:101680008A15E3018A1198208A152F3003178D00DF
:1016900000308F00031009300313E3008A1109247E
:1016A0008A15893084004908E6004808E5004708A3
:1016B000E4004608E3000230E7008A11B1248A15ED
:1016C0002030F0008A119E208A155630F0008A11D1
:1016D0009E208A150430E300FA30E6008A11572074
:1016E0008A15E30B6C2B1430E3008A1111218A1543
:1016F0000130E5008A116B208A153230E6008A112C
:1017000057208A15E3018A1198208A15363003176D
:101710008D0000308F00031009300313E3008A119D
:1017200009248A15893084005108E6005008E50034
:101730004F08E4004E08E3000230E7008A11B124AC
:101740008A152030F0008A119E208A154130F00061
:101750008A119E208A150430E300FA30E6008A11CF
:1017600057208A15E30BAD2B1430E3008A111121A9
:101770008A150130E5008A116B208A153230E600A7
:101780008A1157208A154908F3004808F2004708D3
:10179000F1004608F0005108FE005008FD004F0817
:1017A000FC004E08FB008A1140218A157A08E100EE
:1017B0007908E0007808DF007708DE00E3018A118D
:1017C00098208A153D3003178D0000308F008A1154
:1017D0000313B5208A150330E3008A110B218A1503
:1017E000893084006108E6006008E5005F08E400D5
:1017F0005E08E3000230E7008A11B1248A15203028
:10180000F0008A119E208A155730F0008A119E2020
:101810008A150430E300FA30E6008A1157208A1551
:10182000E30B0B2C1430E3008A1111218A150130CF
:10183000E5008A116B208A153230E6008A115720A4
:101840008A152030F8001F08C73978049F00A63099
:10185000F700F70B292C00001F151F192D2C1E084F
:10186000FA0083161E088312E3001E08E4008A11A2
:1018700023218A157A08A9007908A8007808A7000A
:101880007708A600E3018A1198208A15F301F20176
:101890002030F1008130F0002908FE002808FD000A
:1018A0002708FC002608FB008A1140218A157A08C7
:1018B000E6007908E5007808E4007708E3006608A8
:1018C000EA006508E9006408E8006308E700EE0143
:1018D000C030ED007F30EC008830EB008A11C6216B
:1018E0008A157A08B5007908B4007808B30077083B
:1018F000B2008314EA01C030E9007F30E80088308C
:10190000E7002908EE002808ED002708EC0026086B
:10191000EB008A1190228A157A08E6007908E50022
:101920007808E4007708E3006608F3006508F20031
:101930006408F1006308F000FE01FD017030FC0056
:101940008230FB008A1140218A157A08D900790873
:10195000D8007808D7007708D600E3018A119820CC
:101960008A15443003178D0000308F008A1103134D
:10197000B5208A150330E3008A110B218A158930BE
:1019800084005908E6005808E5005708E4005608A6
:10199000E3000230E7008A11B1248A154E300317A4
:1019A0008D0000308F00031004300313E3008A1110
:1019B00009248A150430E300FA30E6008A11572022
:1019C0008A15E30BDC2C1430E3008A1111218A15EF
:1019D0000130E5008A116B208A153230E6008A1149
:1019E00057208A152830F8001F08C73978049F004F
:1019F000A630F700F70BFA2C00001F151F19FE2C5C
:101A00001E08FA0083161E088312E3001E08E40075
:101A10008A1123218A157A08AD007908AC0078086C
:101A2000AB007708AA003030F8001F08C7397804E7
:101A30009F00A630F700F70B1B2D00001F151F1984
:101A40001F2D1E08FA0083161E088312E3001E08CD
:101A5000E4008A1123218A157A08B1007908B000C0
:101A60007808AF007708AE00E3018A1198208A1544
:101A7000F301F2012030F1008130F0002D08FE006A
:101A80002C08FD002B08FC002A08FB008A114021CD
:101A90008A157A08E6007908E5007808E4007708F6
:101AA000E3006608EA006508E9006408E8006308E6
:101AB000E700EE01C030ED007F30EC008830EB0035
:101AC0008A11C6218A157A08B9007908B800780801
:101AD000B7007708B600F301F2012030F100813041
:101AE000F0003108FE003008FD002F08FC002E0831
:101AF000FB008A1140218A157A08E6007908E50082
:101B00007808E4007708E3006608EA006508E90061
:101B10006408E8006308E700EE01C030ED007F30A4
:101B2000EC008830EB008A11C6218A157A08BD00C6
:101B30007908BC007808BB007708BA00831439081C
:101B4000EA003808E9003708E8003608E7003D08F1
:101B5000EE003C08ED003B08EC003A08EB008A116F
:101B600090228A157A08E6007908E5007808E400F2
:101B70007708E3006608F3006508F2006408F100E6
:101B80006308F000FE01FD014830FC008530FB00D9
:101B90008A1140218A157A08D5007908D40078087E
:101BA000D3007708D200513003178D0000308F002A
:101BB000031006300313E3008A1109248A158930C3
:101BC00084005508E6005408E5005308E400520874
:101BD000E3000230E7008A11B1248A152030F000BA
:101BE0008A119E208A154330F0008A119E208A15A2
:101BF0000430E300FA30E6008A1157208A15E30B1F
:101C0000FA2D1430E3008A1111218A158728630008
:02400E00723FFF
:00000001FF
;PIC16F877
;CRC=6663  CREATED="04-Mar-19 15:55"
