:1000000003308A00642B0000D6274C2AC123451DEB
:10001000A0126610760028308400831300080319AC
:100020001F280130F800F701F70B1428F80B1328EC
:100030004A30F700F70B1A281D28800B11280800FA
:100040002610260883168700831207108316860160
:10005000831229088600A6102608831687008312BB
:1000600087142030F700F70B332836280000A6103D
:100070002608831687008312871008000230A70025
:100080009630A8000B20A70B40283830A90020206C
:100090000E30A90020200130A90020203230A80015
:1000A0000B208A110A12732B80302707A800A900A1
:1000B00020208A110A12972B8E30F7002808F800AA
:1000C0002708F900FA01F808031D70287908F800DC
:1000D000F9010830F702F808031D7028F7017828A5
:1000E0000310F81B7728F90DF80DF7037028F813A3
:1000F0008A110A129C2B34080319EB28BC0038081B
:100100000319EB28BC0703188C287F30BC02031CA2
:10011000EB280319EB2890288130BC070318EB2843
:100120003C08F700F801F901FA013508C000C017D2
:100130003608BF003708BE001830BC00BD013E1CA9
:10014000B9283B08FA07031CAB28F90A031DAB28A2
:10015000F80A0319BD173A08F907031CB228F80A70
:100160000319BD173908B600B6173608F807031883
:10017000BD17BD0DF80CF90CFA0CC00CBF0CBE0C71
:100180000310BC0B9E280130F7070318EB28F81B5F
:10019000D028C00DFA0DF90DF80DF7030319EB285F
:1001A000C01FE128FA0A031DE128F90A031DE1280E
:1001B000F80A031DE128F80CF90CFA0CF70A0319E8
:1001C000EB283508BD003908BD06BD1FE928F81722
:1001D000EF28F813EF28F701F801F901FA010800F8
:1001E0002B080319B529B7002F080319B529B70241
:1001F000031CFF287F30B7070318B5290529813074
:10020000B702031CB5290319B5293708F700F8010F
:10021000F901FA01B6012C08B500B5172D08B40094
:100220002E08B3001930B7003208B302031828298A
:100230000130B40203182829B50203182829B60290
:1002400003182829B60AB50AB40A3208B3075A298E
:100250003108B402031843290130B50203184329B9
:10026000B60203184329B60AB50A3108B4073208A2
:10027000B307031C5A29B40A031D5A29B50A031DE2
:100280005A29B60A5A2930088038B5020318592964
:100290000130B60203185929B60A30088038B5076C
:1002A0003108B407031C3729B50A031D3729B60ADC
:1002B00037297A14B70B5D2968290310B30DB40DE3
:1002C000B50DB60D0310FA0DF90DF80DB80D142982
:1002D000381C70290310F80CF90CFA0CB80C7329AF
:1002E000F7030319B529B81B9C290310B30DB40DEE
:1002F000B50DB60D3208B302031888290130B402D7
:1003000003188829B50203188829B602031CAB29F3
:100310003108B402031893290130B5020318932958
:10032000B602031CAB2930088038B50203189C299B
:100330000130B602031CAB29FA0A031DAB29F90AE6
:10034000031DAB29F80A031DAB29F70A0319B529C8
:10035000F80CF90CFA0C2C08B7003008B706B71FD8
:10036000B329F817B929F813B929F701F801F901E8
:10037000FA018A110A12C32B261026088316870059
:100380008312071483168601831234088600A61090
:10039000260883168700831287142030F700F70B96
:1003A000CF29D2290000A6102608831687008312C1
:1003B000871008000B08A8008B13831603178C17EF
:1003C0000C140000000083120313A81B8B170318E2
:1003D000112A03170C087F390313A80003170D080F
:1003E0000313A90003170F080313AA002808B40079
:1003F000BC21290803178D0003132A0803178F0057
:1004000003130B08AB008B13831603178C170C1404
:100410000000000083120313AB1B8B17A70B112ADC
:10042000302A03170C0D0E0D7F390313A800031794
:100430000D080313A90003170F080313AA002808C7
:10044000B400BC21290803178D0003132A080317E1
:100450008F008D0A03198F0A03100313A70BDA29E3
:100460008A110A12D52B8318382A3C308400831352
:10047000F701F801F901FA01BC01BD01BE01BF019C
:100480003B083A04390438040319762A2030C000A6
:100490000310B40DB50DB60DB70DBC0DBD0DBE0DE1
:1004A000BF0D3B083F02031D5F2A3A083E02031DB1
:1004B0005F2A39083D02031D5F2A38083C02031CED
:1004C000702A3808BC023908031C390FBD023A08EB
:1004D000031C3A0FBE023B08031C3B0FBF02031470
:1004E000F70DF80DF90DFA0DC00B482A3C088000F5
:1004F000840A3D088000840A3E088000840A3F0880
:10050000800008000408AC002B08AE000319A12AE3
:100510002A08B7002908B6002808B5002708B40043
:10052000BB01BA012030B9008230B8007B207A08C4
:10053000AA007908A9007808A8007708A700AE0BE0
:10054000882A2A08B7002908B6002808B500270815
:10055000B4003408B63CB400FA013508B800B51749
:100560000310B50CB60CB70CFA0CF90CF80CF70C20
:10057000B40BB02AB81FC72AF709F809F909FA0914
:10058000F70A0319F80A0319F90A0319FA0A7A088B
:10059000AA007908A9007808A8007708A700AA1F70
:1005A000DE2AAC03AC16A709A809A909AA09A70A5B
:1005B0000319A80A0319A90A0319AA0A3B30B300B0
:1005C0009A30B200CA30B100B0010A30AE002B0838
:1005D0000319AC0A83142730840083132A08B70058
:1005E0002908B6002808B5002708B4003308BB0066
:1005F0003208BA003108B9003008B8003322780850
:10060000F708031D162B2B0A2E020319162B2C0894
:100610000319182B0F392E020319102B0318482B1E
:10062000AC1B482B2C1B182B2030442B2030AC0546
:10063000AC1E262BAC122B08031DAC037708AC00B4
:100640002D30B400BC212C08F700AC012B082E0281
:10065000031D342B7708AC002E30B400BC212C08CD
:10066000F7002030AC0500303030AC1E442BAC120B
:100670002B08031DAC037708AC002D30B400BC215F
:100680002C08F700AC013030F7077708B400BC2124
:1006900083103308B7003208B6003108B5003008BF
:1006A000B400BB01BA01B9010A30B80033227A089C
:1006B000B3007908B2007808B1007708B000AE0B3B
:1006C000EA2A8A110A12E22B03081F398300FF303D
:1006D000A60083161F149F141F159F1107309C003E
:1006E000831383123E2883161F109F141F159F1516
:1006F0001F1383121F139F1783169F1783121F1434
:100700000030F8001F08C73978049F002030F70038
:10071000F70B882B8B2B00001F151F198D2B8316B1
:100720001E088312A0001E08A100A701542821085A
:10073000A8002008A7005C28B701B6012030B5004A
:100740008130B4007A08BB007908BA007808B90093
:100750007708B8007B207A08AA007908A9007808F1
:10076000A8007708A7007A08AE007908AD007808DD
:10077000AC007708AB00B201C030B1007F30B000F0
:100780008830AF00F0287A08A5007908A40078081E
:10079000A3007708A200043003178D0000308F00FB
:1007A000031009300313A700DA29893084002508D3
:1007B000AA002408A9002308A8002208A7000230E4
:1007C000AB00822A2030B400BC217630B400BC21BA
:0407D000802B630017
:02400E00723FFF
:00000001FF
;PIC16F877A
;CRC=3B17  CREATED="11-Nov-18 09:43"
