:1000000008308A0000280000CD30E4322031791D0C
:100010000000C630693D6137AC29E830EB3472002E
:10002000CD30E4322031791D000141376410C830F1
:100030006D3D6100D6274C2AC123451D2533202B59
:100040000000C32A52294527541D2533A020000152
:100050004927D02A5410D027D722521D0001D62775
:100060004C2AC123451DA01266105600C32A5229EE
:100070004527541DA01266104100CF2A5428552A46
:100080002028CF2B45293A00C42AD42CA021D921DD
:10009000CC223A10253220006830840083130008F7
:1000A00003195F280630F800F701F70B5528F80B05
:1000B00054287B30F700F70B5B28800B5228080090
:1000C00083160810831208108316860183126708AE
:1000D00086008316881083128814A630F700F70B69
:1000E0006F280000831688108312881008000230E1
:1000F000E5009630E8004C20E50B79283830E70021
:1001000060200E30E70060200130E70060203230D0
:10011000E8004C208A150A12242880306507E60082
:10012000E700602008008316081083120814831665
:100130008601720883128600831688108312881441
:10014000A630F700F70BA228000083168810831250
:10015000881008000B08E5008B13831603178C1713
:100160000C140000000083120313E51B8B17031708
:100170000C087F390319FE280313E50003170D0847
:100180000313E60003170F080313E7006508F200E6
:100190009320660803178D000313670803178F0069
:1001A00003130B08E8008B13831603178C170C142A
:1001B0000000000083120313E81B8B1703170C0DBC
:1001C0000E0D7F390319FE280313E50003170D08F0
:1001D0000313E60003170F080313E7006508F20096
:1001E0009320660803178D000313670803178F0019
:1001F0008D0A03198F0A0313AA2803170313080093
:10020000C0306507E600E70060200800E6016508E9
:100210006602031817291C30E70060200230E7004F
:100220009630E8004C20E70B1029E60A0729080061
:100230008E30F7006608F8006508F900FA01F80842
:10024000031D2C297908F800F9010830F702F80895
:10025000031D2C29F70134290310F81B3329F90D4C
:10026000F80DF7032C29F813080072080319B429B4
:100270008316A0007B08031D3F298312B429A00721
:1002800003184D297F30A002031848298312B4298E
:10029000031D4C298312B42953298130A007031C64
:1002A00053298312B4292008F700F801F901FA0153
:1002B0007308A400A4177408A3007508A2001830DE
:1002C000A000A101221C7C297E08FA07031C6E29CC
:1002D000F90A031D6E29F80A0319A1177D08F90709
:1002E000031C7529F80A0319A1177C08F400F417F8
:1002F0007408F8070318A117A10DF80CF90CFA0CF3
:10030000A40CA30CA20C0310A00B61290130F70769
:10031000031C8C298312B429F81B9629A40DFA0D0D
:10032000F90DF80DF70B96298312B429A41FA929FA
:10033000FA0A031DA929F90A031DA929F80A031DB0
:10034000A929F80CF90CFA0CF70A031DA929831244
:10035000B4297308A1007C08A106A11FB129F817D0
:10036000B929F813B9298312F701F801F901FA0143
:1003700083168312080069080319802AF5006D08A6
:100380000319802AF502031CCA297F30F5070318D8
:10039000802AD0298130F502031C802A0319802A83
:1003A0007508F700F801F901FA01F4016A08F30091
:1003B000F3176B08F2006C08F1001930F5007008B3
:1003C000F1020318F3290130F2020318F329F302B2
:1003D0000318F329F4020318F329F40AF30AF20AC2
:1003E0007008F107252A6F08F20203180E2A01305F
:1003F000F30203180E2AF40203180E2AF40AF30A71
:100400006F08F2077008F107031C252AF20A031D82
:10041000252AF30A031D252AF40A252A6E088038A6
:10042000F3020318242A0130F4020318242AF40AE0
:100430006E088038F3076F08F207031C022AF30ADC
:10044000031D022AF40A022A7A14F50B282A332AF9
:100450000310F10DF20DF30DF40D0310FA0DF90D6B
:10046000F80DF60DDF29761C3B2A0310F80CF90C69
:10047000FA0CF60C3E2AF7030319802AF61B672AAA
:100480000310F10DF20DF30DF40D7008F1020318D5
:10049000532A0130F2020318532AF3020318532A95
:1004A000F402031C762A6F08F20203185E2A013058
:1004B000F30203185E2AF402031C762A6E088038C1
:1004C000F3020318672A0130F402031C762AFA0AA1
:1004D000031D762AF90A031D762AF80A031D762AD7
:1004E000F70A0319802AF80CF90CFA0C6A08F500CF
:1004F0006E08F506F51F7E2AF817842AF813842A59
:10050000F701F801F901FA01080080308318EE06BE
:100510008316A201A30183126A088316A100831225
:100520006E088316A1068312690803199B2B831694
:10053000A000F70083126D080319A82B8316A002F0
:100540000319352B031CE72A83126E088316A600B5
:10055000A61783126F088316A5007008A400A301D4
:100560000310A60CA50CA40CA30CA00BAF2AA11F72
:10057000BC2A2214C12B2210201022166C308400B9
:100580008313D62B2212A11BCF2A201CDA2AA60CF9
:10059000A50CA40CA30CF70A0319BC2BDA2AA61B82
:1005A000DD2A0310A30DA40DA50DA60DF703031955
:1005B000BC2BCF2A22175B2B221383126A088316C7
:1005C000A100A11FE52AA617B52BA613B52B8312F0
:1005D0006D088316A000F700831269088316A00235
:1005E00083126A088316A600A61783126B08831667
:1005F000A50083126C088316A400A3010310A60CA7
:10060000A50CA40CA30CA00BFD2AA11F0A2BA2145D
:10061000C12BA2102010A216703084008313D62B99
:10062000A212A11B1D2B201C282BA60CA50CA40C70
:10063000A30CF70A0319BC2B282BA61B2B2B03108A
:10064000A30DA40DA50DA60DF7030319BC2B1D2B9F
:10065000A2175B2BA21383126E088316A100A11FA1
:10066000332BA617B52BA613B52B83126E08831652
:10067000A600A61783126F088316A5007008A400B1
:10068000A11F462BA6132215C12B2211A301201056
:100690006C3084008313D62BA11B712B83126A0844
:1006A0008316A100201C5B2BA60CA50CA40CA30C8C
:1006B000F70A0319BC2BA31F6C2BA40A031D6C2B78
:1006C000A50A031D6C2BA60A031D6C2BA60CA50CFA
:1006D000A40CF70A0319BC2B221BDC2AA21B2A2B11
:1006E000942B8030A606A61F7B2BC12B83126E088D
:1006F0008316A1008A2B83126A088316A100A6081C
:10070000031D8A2BA508031D8A2BA408031D8A2B11
:10071000F701B52BA61B942B0310A30DA40DA50D5B
:10072000A60DF70B8A2BBC2BA11F982BA617B52B58
:10073000A613B52B83126D08F7006E088316A6006A
:1007400083126F088316A5007008A400B52B8312CE
:100750006908F7006A088316A60083126B088316DF
:10076000A50083126C088316A4002608F80025084B
:10077000F9002408FA00F42BF701F801F901FA0155
:10078000F42BA301A409A509A609A309A30A031D23
:10079000CF2BA40A031DCF2BA50A0319A60A2218E2
:1007A000BB2AA218092B2219452B762B0008A40777
:1007B000031CE02BA50A031DE02BA60A0319201435
:1007C00084030008A507031CE82BA60A03192014BC
:1007D00084030008801F803AA60703182014221AF9
:1007E000C22AA21A102B4C2B831208000B08E60019
:1007F0008B13831603178C170C1400000000831250
:100800000313E61B8B1703182D2C03170C087F39D5
:100810000313E60003170D080313E70003170F087F
:100820000313E8006608F2009320670803178D00A1
:100830000313680803178F0003130B08E9008B13D9
:10084000831603178C170C14000000008312031387
:10085000E91B8B17E50B2D2C4C2C03170C0D0E0DE3
:100860007F390313E60003170D080313E70003178E
:100870000F080313E8006608F200932067080317C7
:100880008D000313680803178F008D0A03198F0A60
:1008900003100313E50BF62B08008318522CA0302D
:1008A00084008313F701F801F901FA018316A0010E
:1008B000A101A201A3017E087D047C047B0403192D
:1008C000912C2030A4000310F20DF30DF40DF50D62
:1008D000A00DA10DA20DA30D7E082302031D7A2CED
:1008E0007D082202031D7A2C7C082102031D7A2C2C
:1008F0007B082002031C8B2C7B08A0027C08031CB5
:100900007C0FA1027D08031C7D0FA2027E08031C40
:100910007E0FA3020314F70DF80DF90DFA0DA40BC9
:10092000632C20088000840A21088000840A2208A1
:100930008000840A23088000831208000408EA006B
:100940006908EC000319BD2C6808F5006708F4007D
:100950006608F3006508F200FE01FD012030FC008E
:100960008230FB0035217A08E8007908E700780832
:10097000E6007708E500EC0BA42C6808F500670892
:10098000F4006608F3006508F2007208B63CF20055
:10099000FA017308F600F3170310F30CF40CF50CCE
:1009A000FA0CF90CF80CF70CF20BCC2CF61FE32C1C
:1009B000F709F809F909FA09F70A0319F80A0319F6
:1009C000F90A0319FA0A7A08E8007908E7007808B2
:1009D000E6007708E500E81FFA2CEA03EA16E509C5
:1009E000E609E709E809E50A0319E60A0319E70A2F
:1009F0000319E80A3B30F1009A30F000CA30EF00EA
:100A0000EE010A30EC0069080319EA0A8314653024
:100A1000840083136808F5006708F4006608F30093
:100A20006508F2007108FE007008FD006F08FC0008
:100A30006E08FB004D247808F708031D322D690A63
:100A40006C020319322D6A080319342D0F396C0218
:100A500003192C2D0318642DEA1B642D6A1B342DF9
:100A60002030602D2030EA05EA1E422DEA12690886
:100A7000031DEA037708EA002D30F20093206A088C
:100A8000F700EA0169086C02031D502D7708EA009F
:100A90002E30F20093206A08F7002030EA0500307B
:100AA0003030EA1E602DEA126908031DEA03770858
:100AB000EA002D30F20093206A08F700EA01303096
:100AC000F7077708F200932083107108F50070088B
:100AD000F4006F08F3006E08F200FE01FD01FC0156
:100AE0000A30FB004D247A08F1007908F0007808FC
:100AF000EF007708EE00EC0B062D08006C08F801FB
:100B00006B020318862D6B08F700922DF701083051
:100B1000ED00EB0DF70D6C0877020318F700F80DE8
:100B2000ED0B892D0800F701F8016608031067181E
:100B3000F707F70CF80CE718F707F70CF80C67192C
:100B4000F707F70CF80CE719F707F70CF80C671A1A
:100B5000F707F70CF80CE71AF707F70CF80C671B08
:100B6000F707F70CF80CE71BF707F70CF80C8A15DA
:100B70000A124D2C2030661E3030E7006508F70061
:100B8000E51FCA2DF709F70A7708E5002D30E700C1
:100B9000E61766146508EB006430EC007E257708E4
:100BA000E50030307807E8006508EB000A30EC001B
:100BB0007E2530307707EA0030307807E900670893
:100BC000F700303068020319E92DE614E61B6615BC
:100BD000FD2D6708E8002030E70030306902031976
:100BE000F52D6614E61BE614FD2D031D6614031D8A
:100BF000FD2D6808E9002030E8006619042EE6188B
:100C0000072E66180A2E0D2E6708F200932068083A
:100C1000F20093206908F20093206A08F200932002
:100C20008A150A12662C6608ED006A08ED06ED1FAB
:100C30001E2E03110310E61B0314512E6608ED004F
:100C40006908EE006508EE0203192C2EED1F512EE7
:100C50000308013A8300512E6A08EE006608EE028E
:100C60000319382EED1F512E0308013A8300512E2F
:100C70006B08EE006708EE020319442EED1F512E9B
:100C80000308013A8300512E6C08EE006808EE025A
:100C90000319502EED1F512E0308013A8300512EE7
:040CA0000310080035
:1010000003081F398300C501C401C301C201C9011E
:10101000C801C701C601CD01CC01CB01CA010A300C
:10102000CF000630D0000E30D1000130D200FF30AA
:10103000D30083161F149F141F159F11831383124F
:10104000A001A1018A1177288A1583161F109F100D
:101050001F119F1183121F179F1383169F1783124F
:101060001F14D3105308831687008312871053115F
:10107000530883168700831207110C309700003045
:10108000F800043892001330831692008312D401C2
:101090000330E5008A118D208A15043003178D0076
:1010A00000308F008A110313AA208A15E5018A11E6
:1010B00000218A15093003178D0000308F008A1136
:1010C0000313AA208A150430E500FA30E8008A11DB
:1010D0004C208A15E50B65281430E5008A1106219D
:1010E0008A150130E7008A1160208A153230E80045
:1010F0008A114C208A150330E5008A118D208A154B
:10110000103003178D0000308F008A110313AA20BE
:101110008A150230E5008A1100218A15153003175F
:101120008D0000308F008A110313AA208A15043025
:10113000E500FA30E8008A114C208A15E50B992861
:101140001430E5008A1106218A15D40AD40803193F
:1011500048280130E7008A1160208A153230E80003
:101160008A114C208A150030F8001F08C73978040E
:101170009F00A630F700F70BBB2800001F151F19B2
:10118000BF281E08FA0083161E088312E5001E08F9
:10119000E6008A1118218A157A08A9007908A800A2
:1011A0007808A7007708A600F501F4012030F300C5
:1011B0008130F2002908FE002808FD002708FC0005
:1011C0002608FB008A1135218A157A08E80079087B
:1011D000E7007808E6007708E5006808EC00670893
:1011E000EB006608EA006508E900F001C030EF0096
:1011F0007F30EE008830ED008A11BB218A157A0815
:10120000E8007908E7007808E6007708E500680854
:10121000EC006708EB006608EA006508E900F830B2
:10122000F0005330EF006330EE007B30ED008A11A8
:10123000BB218A157A08AD007908AC007808AB00AC
:101240007708AA000830F8001F08C73978049F0003
:10125000A630F700F70B2A2900001F151F192E29A9
:101260001E08FA0083161E088312E5001E08E60019
:101270008A1118218A157A08A9007908A800780827
:10128000A7007708A6000A30F5002830F4002030C7
:10129000F3007730F2002908FE002808FD00270837
:1012A000FC002608FB008A1135218A157A08E8001F
:1012B0007908E7007808E6007708E50083146808F5
:1012C000EC006708EB006608EA006508E900CD302D
:1012D000F000CC30EF001C30EE008030ED008A11C1
:1012E00085228A157A08E8007908E7007808E60080
:1012F0007708E5006808EC006708EB006608EA007C
:101300006508E9000230F0002B30EF000730EE00F6
:101310007B30ED008A11BB218A157A08B10079086B
:10132000B0007808AF007708AE001030F8001F0852
:10133000C73978049F00A630F700F70B9D290000FD
:101340001F151F19A1291E08FA0083161E088312F3
:10135000E5001E08E6008A1118218A157A08A900FE
:101360007908A8007808A7007708A600F501F4011D
:101370002030F3008130F2002908FE002808FD002B
:101380002708FC002608FB008A1135218A157A08F7
:10139000E8007908E7007808E6007708E5006808C3
:1013A000EC006708EB006608EA006508E900F00158
:1013B000C030EF007F30EE008830ED008A11BB2195
:1013C0008A157A08E8007908E7007808E6007708C7
:1013D000E5006808EC006708EB006608EA006508AD
:1013E000E900FA30F0007E30EF002A30EE007D3068
:1013F000ED008A11BB218A157A08B9007908B80076
:101400007808B7007708B6001830F8001F08C73909
:1014100078049F00A630F700F70B0C2A00001F1578
:101420001F19102A1E08FA0083161E088312E500F1
:101430001E08E6008A1118218A157A08A900790881
:10144000A8007808A7007708A6000A30F500283021
:10145000F4002030F3007730F2002908FE0028085D
:10146000FD002708FC002608FB008A1135218A159B
:101470007A08E8007908E7007808E6007708E500D0
:1014800083146808EC006708EB006608EA0065084A
:10149000E9008F30F000C230EF007530EE007F3091
:1014A000ED008A1185228A157A08E8007908E7009C
:1014B0007808E6007708E5006808EC006708EB00AC
:1014C0006608EA006508E9000230F0002B30EF0002
:1014D0000730EE007B30ED008A11BB218A157A08B7
:1014E000BD007908BC007808BB007708BA00E501A8
:1014F0008A118D208A151A3003178D0000308F0055
:10150000031008300313E5008A11F6238A15893089
:1015100084002D08E8002C08E7002B08E6002A08C4
:10152000E5000230E9008A119E248A152030F2007D
:101530008A1193208A155630F2008A1193208A1559
:101540000430E500FA30E8008A114C208A15E50BDA
:10155000A22A1430E5008A1106218A150430E5001C
:10156000FA30E8008A114C208A15E50BB02A0130C8
:10157000E7008A1160208A153230E8008A114C2079
:101580008A15E5018A118D208A15213003178D00F7
:1015900000308F00031008300313E5008A11F62392
:1015A0008A15893084003108E8003008E7002F08E8
:1015B000E6002E08E5000230E9008A119E248A1513
:1015C0002030F2008A1193208A154130F2008A11EE
:1015D00093208A150430E500FA30E8008A114C2087
:1015E0008A15E50BEC2A1430E5008A1106218A15CC
:1015F0000130E7008A1160208A153230E8008A1134
:101600004C208A152D08F5002C08F4002B08F30057
:101610002A08F2003108FE003008FD002F08FC0007
:101620002E08FB008A1135218A157A08B500790841
:10163000B4007808B3007708B200E5018A118D2064
:101640008A15283003178D0000308F008A1103138C
:10165000AA208A150330E5008A1100218A158930F5
:1016600084003508E8003408E7003308E600320853
:10167000E5000230E9008A119E248A152030F2002C
:101680008A1193208A155730F2008A1193208A1507
:101690000430E500FA30E8008A114C208A15E50B89
:1016A0004A2B1430E5008A1106218A150130E70023
:1016B0008A1160208A153230E8008A114C208A1580
:1016C000E5018A118D208A152F3003178D00003017
:1016D0008F00031009300313E5008A11F6238A15E1
:1016E000893084003908E8003808E7003708E60048
:1016F0003608E5000230E9008A119E248A15203060
:10170000F2008A1193208A155630F2008A11932034
:101710008A150430E500FA30E8008A114C208A1559
:10172000E50B8B2B1430E5008A1106218A15013058
:10173000E7008A1160208A153230E8008A114C20B7
:101740008A15E5018A118D208A15363003178D0020
:1017500000308F00031009300313E5008A11F623CF
:101760008A15893084003D08E8003C08E7003B0802
:10177000E6003A08E5000230E9008A119E248A1545
:101780002030F2008A1193208A154130F2008A112C
:1017900093208A150430E500FA30E8008A114C20C5
:1017A0008A15E50BCC2B1430E5008A1106218A1529
:1017B0000130E7008A1160208A153230E8008A1172
:1017C0004C208A153908F5003808F4003708F30072
:1017D0003608F2003D08FE003C08FD003B08FC0016
:1017E0003A08FB008A1135218A157A08C100790868
:1017F000C0007808BF007708BE00E5018A118D207F
:101800008A153D3003178D0000308F008A110313B5
:10181000AA208A150330E5008A1100218A15893033
:1018200084004108E8004008E7003F08E6003E0861
:10183000E5000230E9008A119E248A152030F2006A
:101840008A1193208A155730F2008A1193208A1545
:101850000430E500FA30E8008A114C208A15E50BC7
:101860002A2C1430E5008A1106218A150130E70080
:101870008A1160208A153230E8008A114C208A15BE
:101880004F08EB001430EC008A117E258A15780889
:10189000E6006430E7008A11932D8A157808CE009F
:1018A000E5018A118D208A15443003178D00003020
:1018B0008F0003100C300313E5008A11F6238A15FC
:1018C0004E08E5001830E6008A11BA2D8A1520303E
:1018D000F2008A1193208A150430E500FA30E800FE
:1018E0008A114C208A15E50B6E2C1430E5008A1104
:1018F00006218A150130E7008A1160208A153230EE
:10190000E8008A114C208A1583143508EC0034084D
:10191000EB003308EA003208E9004D08F0004C08FB
:10192000EF004B08EE004A08ED008A1185228A1567
:101930007A08D8007908D7007808D6007708D5004B
:1019400083142D08EC002C08EB002B08EA002A0871
:10195000E9004508F0004408EF004308EE004208A3
:10196000ED008A1185228A157A08DC007908DB00EF
:101970007808DA007708D90083143108EC003008C1
:10198000EB002F08EA002E08E9004908F00048089B
:10199000EF004708EE004608ED008A1185228A15FF
:1019A0007A08E0007908DF007808DE007708DD00BB
:1019B0005808EC005708EB005608EA005508E90003
:1019C0005C08F0005B08EF005A08EE005908ED00D3
:1019D0008A11BB218A157A08E4007908E3007808A7
:1019E000E2007708E1005C08E8005B08E7005A08BD
:1019F000E6005908E500EC01EB01EA01E9018A1172
:101A000013268A150319332EE801E701E601E501E3
:101A10006408EC006308EB006208EA006108E90072
:101A20008A1113268A15031C502D5208CF0735083A
:101A3000CD003408CC003308CB003208CA002D0892
:101A4000C5002C08C4002B08C3002A08C2003108B6
:101A5000C9003008C8002F08C7002E08C60050086B
:101A60004F020318382D5008CF004F0895004F2D16
:101A70004F085102031C402D51084F02031D452DF4
:101A80005108CF004F0895004F2D51084F02031801
:101A90004F2D4F08500203184F2D4F089500332E3D
:101AA0006408E8006308E7006208E6006108E500F2
:101AB000EC01EB01EA01E9018A1113268A15031CE6
:101AC0009C2D5208CF023508CD003408CC003308D5
:101AD000CB003208CA002D08C5002C08C4002B0812
:101AE000C3002A08C2003108C9003008C8002F0806
:101AF000C7002E08C60050084F020318842D500856
:101B0000CF004F0895009B2D4F085102031C8C2DD0
:101B100051084F02031D912D5108CF004F08950029
:101B20009B2D51084F0203189B2D4F08500203189C
:101B30009B2D4F089500332EE801E701E601E501F2
:101B40006008EC005F08EB005E08EA005D08E90051
:101B50008A1113268A15031CE82D5208CF07350871
:101B6000CD003408CC003308CB003208CA002D0861
:101B7000C5002C08C4002B08C3002A08C200310885
:101B8000C9003008C8002F08C7002E08C60050083A
:101B90004F020318D02D5008CF004F089500E72DB5
:101BA0004F085102031CD82D51084F02031DDD2D93
:101BB0005108CF004F089500E72D51084F02031838
:101BC000E72D4F0850020318E72D4F089500332EDC
:101BD0006008E8005F08E7005E08E6005D08E500D1
:101BE000EC01EB01EA01E9018A1113268A15031CB5
:101BF000332E5208CF023508CD003408CC0033080C
:101C0000CB003208CA002D08C5002C08C4002B08E0
:101C1000C3002A08C2003108C9003008C8002F08D4
:101C2000C7002E08C60050084F0203181C2E50088B
:101C3000CF004F089500332E4F085102031C242E6D
:101C400051084F02031D292E5108CF004F0895005F
:101C5000332E51084F020318332E4F085002031839
:0A1C6000332E4F089500B3286300EF
:02400E00723FFF
:00000001FF
;PIC16F877
;CRC=F337  CREATED="05-Mar-19 13:47"
