:1000000003308A00072B0000593084008313000856
:10001000031917280630F800F701F70B0D28F80B25
:100020000C287B30F700F70B1328800B0A288A1165
:100030000A12482B8E30F7005908F8005808F900CA
:10004000FA01F808031D2E287908F800F901083094
:10005000F702F808031D2E28F70136280310F81BB5
:100060003528F90DF80DF7032E28F8130800580865
:100070000319A728E0005C080319A728E007031864
:1000800048287F30E002031CA7280319A7284C2822
:100090008130E0070318A7286008F700F801F9018C
:1000A000FA015908E400E4175A08E3005B08E2008B
:1000B0001830E000E101621C75285F08FA07031C94
:1000C0006728F90A031D6728F80A0319E1175E0873
:1000D000F907031C6E28F80A0319E1175D08DA0016
:1000E000DA175A08F8070318E117E10DF80CF90CB4
:1000F000FA0CE40CE30CE20C0310E00B5A2801307C
:10010000F7070318A728F81B8C28E40DFA0DF90D42
:10011000F80DF7030319A728E41F9D28FA0A031D09
:100120009D28F90A031D9D28F80A031D9D28F80C37
:10013000F90CFA0CF70A0319A7285908E1005D0821
:10014000E106E11FA528F817AB28F813AB28F70143
:10015000F801F901FA0108005C0803197129E800A7
:10016000600803197129E802031CBB287F30E807E7
:1001700003187129C1288130E802031C7129031971
:1001800071296808F700F801F901FA01E7015D0833
:10019000E600E6175E08E5005F08E4001930E800B5
:1001A0006308E4020318E4280130E5020318E42898
:1001B000E6020318E428E7020318E428E70AE60A3F
:1001C000E50A6308E40716296208E5020318FF2818
:1001D0000130E6020318FF28E7020318FF28E70AA8
:1001E000E60A6208E5076308E407031C1629E50A26
:1001F000031D1629E60A031D1629E70A16296108B8
:100200008038E602031815290130E7020318152982
:10021000E70A61088038E6076208E507031CF3284F
:10022000E60A031DF328E70AF3287A14E80B1929D4
:1002300024290310E40DE50DE60DE70D0310FA0D7A
:10024000F90DF80DE90DD028691C2C290310F80CC4
:10025000F90CFA0CE90C2F29F70303197129E91B92
:1002600058290310E40DE50DE60DE70D6308E402DF
:10027000031844290130E50203184429E602031853
:100280004429E702031C67296208E50203184F2985
:100290000130E60203184F29E702031C67296108B1
:1002A0008038E602031858290130E702031C672949
:1002B000FA0A031D6729F90A031D6729F80A031DB5
:1002C0006729F70A03197129F80CF90CFA0C5D0873
:1002D000E8006108E806E81F6F29F8177529F81388
:1002E0007529F701F801F901FA0108000330D80275
:1002F000031C8429583084008313000803198429BF
:1003000082298229800B81298A110A12B42B80301C
:100310008318E106E601E7015D08E5006108E506EE
:100320005C080319772AE400F70060080319802AA3
:10033000E40203191C2A031CDA296108EA00EA17FF
:100340006208E9006308E800E7010310EA0CE90C21
:10035000E80CE70CE40BA429E51FB1296614942AE4
:100360006610641066165F3084008313A92A661233
:10037000E51BC429641CCF29EA0CE90CE80CE70C46
:10038000F70A03198F2ACF29EA1BD2290310E70D98
:10039000E80DE90DEA0DF70303198F2AC429661742
:1003A0003C2A66135D08E500E51FD829EA17882A6C
:1003B000EA13882A6008E400F7005C08E4025D089C
:1003C000EA00EA175E08E9005F08E800E7010310A9
:1003D000EA0CE90CE80CE70CE40BE629E51FF3292D
:1003E000E614942AE6106410E61663308400831342
:1003F000A92AE612E51B062A641C112AEA0CE90C5C
:10040000E80CE70CF70A03198F2A112AEA1B142AB1
:100410000310E70DE80DE90DEA0DF70303198F2A24
:10042000062AE6173C2AE6136108E500E51F1A2AAA
:10043000EA17882AEA13882A6108EA00EA1762089C
:10044000E9006308E800E51F292AEA136615942AE3
:100450006611E70164105F3084008313A92AE51B4D
:10046000522A5D08E500641C3C2AEA0CE90CE80C01
:10047000E70CF70A03198F2AE71F4D2AE80A031D24
:100480004D2AE90A031D4D2AEA0A031D4D2AEA0CEA
:10049000E90CE80CF70A03198F2A661BD129E61B21
:1004A000132A712A8030EA06EA1F5A2A942A610820
:1004B000E500672A5D08E500EA08031D672AE908E8
:1004C000031D672AE808031D672AF701882AEA1B2B
:1004D000712A0310E70DE80DE90DEA0DF70B672A05
:1004E0008F2AE51F752AEA17882AEA13882A6008E6
:1004F000F7006108EA006208E9006308E800882A5A
:100500005C08F7005D08EA005E08E9005F08E800A3
:100510006A08F8006908F9006808FA00C72AF701B4
:10052000F801F901FA01C72AE701E809E909EA092E
:10053000E709E70A031DA22AE80A031DA22AE90A1D
:100540000319EA0A6618B029E618F2296619282A5A
:10055000572A0008E807031CB32AE90A031DB32A37
:10056000EA0A0319641484030008E907031CBB2A80
:10057000EA0A0319641484030008801F803AEA071A
:1005800003186414661AB729E61AF9292F2A0800F5
:100590005908E0005D08E006E01FD32A03110310AC
:1005A000D91B0314062B5908E0005C08E100580829
:1005B000E1020319E12AE01F062B0308013A830038
:1005C000062B5D08E1005908E1020319ED2AE01F3E
:1005D000062B0308013A8300062B5E08E1005A0847
:1005E000E1020319F92AE01F062B0308013A8300F0
:1005F000062B5F08E1005B08E1020319052BE01FF1
:10060000062B0308013A8300062B03100800030899
:100610001F398300FF30A60083161F149F141F1577
:100620009F1183138312A001A1010A30A800063094
:10063000A9000E30AA000130AB00B701B601B50128
:10064000B401BB01BA01B901B8012808A7001F17FE
:100650009F1383169F1783121F1483161F109F105A
:100660001F119F11831226112608831687008312FB
:1006700007110C3097000030F80004389200133056
:100680008316920004308312D800FA30D90004286F
:10069000D80B452B0030F8001F08C73978049F009D
:1006A000A630F700F70B522B00001F151F19562B11
:1006B0001E08FA0083161E088312D8001E08D900EF
:1006C0001A207A08AF007908AE007808AD007708E4
:1006D000AC00DB01DA012030D9008130D8002F08CE
:1006E000DF002E08DE002D08DD002C08DC0037209E
:1006F0007A08DB007908DA007808D9007708D80092
:100700007A08DF007908DE007808DD007708DC0071
:10071000E301C030E2007F30E1008830E000AC202F
:100720007A08DB007908DA007808D9007708D80061
:100730007A08DF007908DE007808DD007708DC0041
:10074000F830E3005330E2006330E1007B30E0003A
:10075000AC207A08BF007908BE007808BD00770891
:10076000BC00C830D80076291F151F19B52B1E08EC
:10077000FA0083161E088312D8001E08D9001A201A
:100780007A08B3007908B2007808B1007708B000A1
:10079000DB01DA012030D9008130D8002F08DF00DA
:1007A0002E08DE002D08DD002C08DC0037207A083A
:1007B000DB007908DA007808D9007708D8007A08D1
:1007C000DF007908DE007808DD007708DC00E3014F
:1007D000C030E2007F30E1008830E000AC207A08D1
:1007E000DB007908DA007808D9007708D8007A08A1
:1007F000DF007908DE007808DD007708DC00F830DB
:10080000E3005330E2006330E1007B30E000AC20D5
:100810007A08C3007908C2007808C1007708C000D0
:100820000830F8001F08C73978049F00A630F70089
:10083000F70B182C00001F151F191C2C1E08FA009E
:1008400083161E088312D8001E08D9001A207A08C1
:10085000AF007908AE007808AD007708AC000A3028
:10086000DB002830DA002030D9007730D8002F089C
:10087000DF002E08DE002D08DD002C08DC0037200C
:100880007A08DB007908DA007808D9007708D80000
:1008900083147A08DF007908DE007808DD00770825
:1008A000DC00E301E2012030E1008030E00087213C
:1008B0007A08DB007908DA007808D9007708D800D0
:1008C0007A08DF007908DE007808DD007708DC00B0
:1008D0000230E3002B30E2000730E1007B30E00023
:1008E000AC207A08C7007908C6007808C5007708E8
:1008F000C40083143F08DF003E08DE003D08DD0031
:100900003C08DC003708E3003608E2003508E10067
:100910003408E00087217A08CB007908CA007808FB
:10092000C9007708C80083144708DF004608DE00C6
:100930004508DD004408DC003B08E3003A08E2001B
:100940003908E1003808E00087217A08CF007908EB
:10095000CE007808CD007708CC004F08DF004E08A5
:10096000DE004D08DD004C08DC004B08E3004A08BF
:10097000E2004908E1004808E000AC207A08D30012
:100980007908D2007808D1007708D0004708DF0046
:100990004608DE004508DD004408DC003F08E300AF
:1009A0003E08E2003D08E1003C08E000AC2077088A
:1009B000D4007808803AD5007908D6007A08D700A4
:1009C0004B08DB004A08DA004908D9004808D8007B
:1009D000DF01DE01DD01DC01C822031D212D4F08EE
:1009E000DB004E08DA004D08D9004C08D800DF01C2
:1009F000DE01DD01DC01C8220319202D2B08A7022E
:100A0000DB01DA01D901D8014F08DF004E08DE0012
:100A10004D08DD004C08DC00C8220318FE2C2B0812
:100A2000A7074F08DB004E08DA004D08D9004C0834
:100A3000D800DF01DE01DD01DC01C82203180F2D23
:100A4000E02C4B08DB004A08DA004908D9004808C6
:100A5000D800DF01DE01DD01DC01C82203196E2DA3
:100A60005308DB005208DA005108D9005008D800BA
:100A70005708DF005608DE005508DD005408DC008A
:100A8000C82203196D2D2B08A7075708DB0056084D
:100A9000DA005508D9005408D8005308DF0052087E
:100AA000DE005108DD005008DC00C8220318432D89
:100AB0002B08A7025308DB005208DA005108D900BE
:100AC0005008D8005708DF005608DE005508DD0042
:100AD0005408DC00C8220318582D212D3F08B70008
:100AE0003E08B6003D08B5003C08B4004708BB000E
:100AF0004608BA004508B9004408B800290827028A
:100B00000318872D2908A700270895009E2D270880
:100B10002A02031C8F2D2A082702031D942D2A0860
:100B2000A700270895009E2D2A08270203189E2D4E
:100B30002708290203189E2D27089500272B6300FC
:02400E00723FFF
:00000001FF
;PIC16F877
;CRC=CE6B  CREATED="25-Feb-19 11:18"
